{
  "_format": "hh-sol-artifact-1",
  "contractName": "Whitelist",
  "sourceName": "contracts/WhiteList.sol",
  "abi": [
    {
      "inputs": [],
      "stateMutability": "nonpayable",
      "type": "constructor"
    },
    {
      "anonymous": false,
      "inputs": [
        {
          "indexed": true,
          "internalType": "address",
          "name": "previousOwner",
          "type": "address"
        },
        {
          "indexed": true,
          "internalType": "address",
          "name": "newOwner",
          "type": "address"
        }
      ],
      "name": "OwnershipTransferred",
      "type": "event"
    },
    {
      "anonymous": false,
      "inputs": [
        {
          "indexed": true,
          "internalType": "bytes32",
          "name": "role",
          "type": "bytes32"
        },
        {
          "indexed": true,
          "internalType": "bytes32",
          "name": "previousAdminRole",
          "type": "bytes32"
        },
        {
          "indexed": true,
          "internalType": "bytes32",
          "name": "newAdminRole",
          "type": "bytes32"
        }
      ],
      "name": "RoleAdminChanged",
      "type": "event"
    },
    {
      "anonymous": false,
      "inputs": [
        {
          "indexed": true,
          "internalType": "bytes32",
          "name": "role",
          "type": "bytes32"
        },
        {
          "indexed": true,
          "internalType": "address",
          "name": "account",
          "type": "address"
        },
        {
          "indexed": true,
          "internalType": "address",
          "name": "sender",
          "type": "address"
        }
      ],
      "name": "RoleGranted",
      "type": "event"
    },
    {
      "anonymous": false,
      "inputs": [
        {
          "indexed": true,
          "internalType": "bytes32",
          "name": "role",
          "type": "bytes32"
        },
        {
          "indexed": true,
          "internalType": "address",
          "name": "account",
          "type": "address"
        },
        {
          "indexed": true,
          "internalType": "address",
          "name": "sender",
          "type": "address"
        }
      ],
      "name": "RoleRevoked",
      "type": "event"
    },
    {
      "inputs": [],
      "name": "DEFAULT_ADMIN_ROLE",
      "outputs": [
        {
          "internalType": "bytes32",
          "name": "",
          "type": "bytes32"
        }
      ],
      "stateMutability": "view",
      "type": "function"
    },
    {
      "inputs": [
        {
          "internalType": "uint256",
          "name": "_saleId",
          "type": "uint256"
        },
        {
          "internalType": "address[]",
          "name": "_addresses",
          "type": "address[]"
        },
        {
          "internalType": "uint256[]",
          "name": "_amounts",
          "type": "uint256[]"
        }
      ],
      "name": "addSaleWhitelist",
      "outputs": [],
      "stateMutability": "nonpayable",
      "type": "function"
    },
    {
      "inputs": [
        {
          "internalType": "uint256",
          "name": "saleId",
          "type": "uint256"
        },
        {
          "internalType": "uint256",
          "name": "num",
          "type": "uint256"
        }
      ],
      "name": "getNftInfo",
      "outputs": [
        {
          "internalType": "address",
          "name": "NFTcontractAddress",
          "type": "address"
        },
        {
          "internalType": "uint256",
          "name": "Balance",
          "type": "uint256"
        }
      ],
      "stateMutability": "view",
      "type": "function"
    },
    {
      "inputs": [
        {
          "internalType": "bytes32",
          "name": "role",
          "type": "bytes32"
        }
      ],
      "name": "getRoleAdmin",
      "outputs": [
        {
          "internalType": "bytes32",
          "name": "",
          "type": "bytes32"
        }
      ],
      "stateMutability": "view",
      "type": "function"
    },
    {
      "inputs": [
        {
          "internalType": "bytes32",
          "name": "role",
          "type": "bytes32"
        },
        {
          "internalType": "uint256",
          "name": "index",
          "type": "uint256"
        }
      ],
      "name": "getRoleMember",
      "outputs": [
        {
          "internalType": "address",
          "name": "",
          "type": "address"
        }
      ],
      "stateMutability": "view",
      "type": "function"
    },
    {
      "inputs": [
        {
          "internalType": "bytes32",
          "name": "role",
          "type": "bytes32"
        }
      ],
      "name": "getRoleMemberCount",
      "outputs": [
        {
          "internalType": "uint256",
          "name": "",
          "type": "uint256"
        }
      ],
      "stateMutability": "view",
      "type": "function"
    },
    {
      "inputs": [
        {
          "internalType": "bytes32",
          "name": "role",
          "type": "bytes32"
        },
        {
          "internalType": "address",
          "name": "account",
          "type": "address"
        }
      ],
      "name": "grantRole",
      "outputs": [],
      "stateMutability": "nonpayable",
      "type": "function"
    },
    {
      "inputs": [
        {
          "internalType": "uint256",
          "name": "",
          "type": "uint256"
        }
      ],
      "name": "hasQuota",
      "outputs": [
        {
          "internalType": "bool",
          "name": "",
          "type": "bool"
        }
      ],
      "stateMutability": "view",
      "type": "function"
    },
    {
      "inputs": [
        {
          "internalType": "bytes32",
          "name": "role",
          "type": "bytes32"
        },
        {
          "internalType": "address",
          "name": "account",
          "type": "address"
        }
      ],
      "name": "hasRole",
      "outputs": [
        {
          "internalType": "bool",
          "name": "",
          "type": "bool"
        }
      ],
      "stateMutability": "view",
      "type": "function"
    },
    {
      "inputs": [
        {
          "internalType": "uint256",
          "name": "_saleId",
          "type": "uint256"
        },
        {
          "internalType": "address",
          "name": "_address",
          "type": "address"
        },
        {
          "internalType": "uint256",
          "name": "_buyAmount",
          "type": "uint256"
        },
        {
          "internalType": "uint256",
          "name": "_amount",
          "type": "uint256"
        }
      ],
      "name": "isSaleWhitelist",
      "outputs": [
        {
          "internalType": "bool",
          "name": "",
          "type": "bool"
        }
      ],
      "stateMutability": "view",
      "type": "function"
    },
    {
      "inputs": [],
      "name": "masterFarmAddr",
      "outputs": [
        {
          "internalType": "address",
          "name": "",
          "type": "address"
        }
      ],
      "stateMutability": "view",
      "type": "function"
    },
    {
      "inputs": [
        {
          "internalType": "uint256",
          "name": "",
          "type": "uint256"
        },
        {
          "internalType": "uint256",
          "name": "",
          "type": "uint256"
        }
      ],
      "name": "nftAddressesBySaleId",
      "outputs": [
        {
          "internalType": "address",
          "name": "",
          "type": "address"
        }
      ],
      "stateMutability": "view",
      "type": "function"
    },
    {
      "inputs": [
        {
          "internalType": "uint256",
          "name": "",
          "type": "uint256"
        },
        {
          "internalType": "uint256",
          "name": "",
          "type": "uint256"
        }
      ],
      "name": "nftMinimumBalanceBySaleId",
      "outputs": [
        {
          "internalType": "uint256",
          "name": "",
          "type": "uint256"
        }
      ],
      "stateMutability": "view",
      "type": "function"
    },
    {
      "inputs": [],
      "name": "owner",
      "outputs": [
        {
          "internalType": "address",
          "name": "",
          "type": "address"
        }
      ],
      "stateMutability": "view",
      "type": "function"
    },
    {
      "inputs": [
        {
          "internalType": "uint256",
          "name": "_saleId",
          "type": "uint256"
        },
        {
          "internalType": "address[]",
          "name": "_addresses",
          "type": "address[]"
        }
      ],
      "name": "removeSaleWhitelist",
      "outputs": [],
      "stateMutability": "nonpayable",
      "type": "function"
    },
    {
      "inputs": [],
      "name": "renounceOwnership",
      "outputs": [],
      "stateMutability": "nonpayable",
      "type": "function"
    },
    {
      "inputs": [
        {
          "internalType": "bytes32",
          "name": "role",
          "type": "bytes32"
        },
        {
          "internalType": "address",
          "name": "account",
          "type": "address"
        }
      ],
      "name": "renounceRole",
      "outputs": [],
      "stateMutability": "nonpayable",
      "type": "function"
    },
    {
      "inputs": [
        {
          "internalType": "bytes32",
          "name": "role",
          "type": "bytes32"
        },
        {
          "internalType": "address",
          "name": "account",
          "type": "address"
        }
      ],
      "name": "revokeRole",
      "outputs": [],
      "stateMutability": "nonpayable",
      "type": "function"
    },
    {
      "inputs": [
        {
          "internalType": "uint256",
          "name": "",
          "type": "uint256"
        },
        {
          "internalType": "address",
          "name": "",
          "type": "address"
        }
      ],
      "name": "saleQuotaWhitelist",
      "outputs": [
        {
          "internalType": "uint256",
          "name": "",
          "type": "uint256"
        }
      ],
      "stateMutability": "view",
      "type": "function"
    },
    {
      "inputs": [
        {
          "internalType": "uint256",
          "name": "",
          "type": "uint256"
        },
        {
          "internalType": "address",
          "name": "",
          "type": "address"
        }
      ],
      "name": "saleWhitelist",
      "outputs": [
        {
          "internalType": "bool",
          "name": "",
          "type": "bool"
        }
      ],
      "stateMutability": "view",
      "type": "function"
    },
    {
      "inputs": [
        {
          "internalType": "uint256",
          "name": "",
          "type": "uint256"
        }
      ],
      "name": "saleWhitelistCount",
      "outputs": [
        {
          "internalType": "uint256",
          "name": "",
          "type": "uint256"
        }
      ],
      "stateMutability": "view",
      "type": "function"
    },
    {
      "inputs": [
        {
          "internalType": "uint256",
          "name": "saleId",
          "type": "uint256"
        },
        {
          "internalType": "address[]",
          "name": "nftAddresses",
          "type": "address[]"
        },
        {
          "internalType": "uint256[]",
          "name": "nftMinimumBalance",
          "type": "uint256[]"
        }
      ],
      "name": "setNftInfo",
      "outputs": [],
      "stateMutability": "nonpayable",
      "type": "function"
    },
    {
      "inputs": [
        {
          "internalType": "bytes4",
          "name": "interfaceId",
          "type": "bytes4"
        }
      ],
      "name": "supportsInterface",
      "outputs": [
        {
          "internalType": "bool",
          "name": "",
          "type": "bool"
        }
      ],
      "stateMutability": "view",
      "type": "function"
    },
    {
      "inputs": [
        {
          "internalType": "address",
          "name": "newOwner",
          "type": "address"
        }
      ],
      "name": "transferOwnership",
      "outputs": [],
      "stateMutability": "nonpayable",
      "type": "function"
    }
  ],
  "bytecode": "0x60806040527319b132eb9dcdaf1029c953dfea7b71539bab4405600960006101000a81548173ffffffffffffffffffffffffffffffffffffffff021916908373ffffffffffffffffffffffffffffffffffffffff1602179055503480156200006657600080fd5b50620000876200007b6200010b60201b60201c565b6200011360201b60201c565b6001600760006001815260200190815260200160002060006101000a81548160ff0219169083151502179055506000600760006002815260200190815260200160002060006101000a81548160ff021916908315150217905550620001056000801b620000f96200010b60201b60201c565b620001d760201b60201c565b62000466565b600033905090565b60008060009054906101000a900473ffffffffffffffffffffffffffffffffffffffff169050816000806101000a81548173ffffffffffffffffffffffffffffffffffffffff021916908373ffffffffffffffffffffffffffffffffffffffff1602179055508173ffffffffffffffffffffffffffffffffffffffff168173ffffffffffffffffffffffffffffffffffffffff167f8be0079c531659141344cd1fd0a4f28419497f9722a3daafe3b4186f6b6457e060405160405180910390a35050565b620001e98282620001ed60201b60201c565b5050565b6200020482826200023560201b62000d2c1760201c565b6200023081600260008581526020019081526020016000206200032660201b62000e0c1790919060201c565b505050565b6200024782826200035e60201b60201c565b6200032257600180600084815260200190815260200160002060000160008373ffffffffffffffffffffffffffffffffffffffff1673ffffffffffffffffffffffffffffffffffffffff16815260200190815260200160002060006101000a81548160ff021916908315150217905550620002c76200010b60201b60201c565b73ffffffffffffffffffffffffffffffffffffffff168173ffffffffffffffffffffffffffffffffffffffff16837f2f8788117e7eff1d82e926ec794901d17c78024a50270940304540a733656f0d60405160405180910390a45b5050565b600062000356836000018373ffffffffffffffffffffffffffffffffffffffff1660001b620003c960201b60201c565b905092915050565b60006001600084815260200190815260200160002060000160008373ffffffffffffffffffffffffffffffffffffffff1673ffffffffffffffffffffffffffffffffffffffff16815260200190815260200160002060009054906101000a900460ff16905092915050565b6000620003dd83836200044360201b60201c565b620004385782600001829080600181540180825580915050600190039060005260206000200160009091909190915055826000018054905083600101600084815260200190815260200160002081905550600190506200043d565b600090505b92915050565b600080836001016000848152602001908152602001600020541415905092915050565b612aa380620004766000396000f3fe608060405234801561001057600080fd5b50600436106101585760003560e01c806391d14854116100c3578063f2fde38b1161007c578063f2fde38b146103fd578063f33e52ae14610419578063f5c5b9f714610449578063fbb383dd14610479578063fcf4cb7f14610495578063fd1e311f146104c657610158565b806391d1485414610303578063a217fddf14610333578063c50bc02314610351578063ca15c87314610381578063ce4c1490146103b1578063d547741f146103e157610158565b806345fa124f1161011557806345fa124f14610243578063640f49c414610273578063715018a61461028f578063727e21d5146102995780638da5cb5b146102b55780639010d07c146102d357610158565b806301ffc9a71461015d578063248a9ca31461018d57806327a188f7146101bd5780632f2ff15d146101db57806336568abe146101f75780633ed1c6ca14610213575b600080fd5b6101776004803603810190610172919061202f565b6104f6565b604051610184919061247e565b60405180910390f35b6101a760048036038101906101a29190611f82565b610570565b6040516101b49190612499565b60405180910390f35b6101c5610590565b6040516101d2919061243a565b60405180910390f35b6101f560048036038101906101f09190611faf565b6105b6565b005b610211600480360381019061020c9190611faf565b6105d7565b005b61022d600480360381019061022891906120c9565b61065a565b60405161023a919061247e565b60405180910390f35b61025d6004803603810190610258919061205c565b6106aa565b60405161026a9190612576565b60405180910390f35b61028d60048036038101906102889190612190565b6106c2565b005b6102976107db565b005b6102b360048036038101906102ae9190612190565b610863565b005b6102bd6108be565b6040516102ca919061243a565b60405180910390f35b6102ed60048036038101906102e89190611fef565b6108e7565b6040516102fa919061243a565b60405180910390f35b61031d60048036038101906103189190611faf565b610916565b60405161032a919061247e565b60405180910390f35b61033b610981565b6040516103489190612499565b60405180910390f35b61036b6004803603810190610366919061205c565b610988565b604051610378919061247e565b60405180910390f35b61039b60048036038101906103969190611f82565b6109a8565b6040516103a89190612576565b60405180910390f35b6103cb60048036038101906103c69190612089565b6109cc565b6040516103d89190612576565b60405180910390f35b6103fb60048036038101906103f69190611faf565b6109f1565b005b61041760048036038101906104129190611f55565b610a12565b005b610433600480360381019061042e9190612225565b610b0a565b604051610440919061243a565b60405180910390f35b610463600480360381019061045e9190612225565b610b58565b6040516104709190612576565b60405180910390f35b610493600480360381019061048e9190612130565b610b89565b005b6104af60048036038101906104aa9190612225565b610c5e565b6040516104bd929190612455565b60405180910390f35b6104e060048036038101906104db9190612089565b610cfd565b6040516104ed919061247e565b60405180910390f35b60007f5a05180f000000000000000000000000000000000000000000000000000000007bffffffffffffffffffffffffffffffffffffffffffffffffffffffff1916827bffffffffffffffffffffffffffffffffffffffffffffffffffffffff19161480610569575061056882610e3c565b5b9050919050565b600060016000838152602001908152602001600020600101549050919050565b600960009054906101000a900473ffffffffffffffffffffffffffffffffffffffff1681565b6105bf82610570565b6105c881610eb6565b6105d28383610eca565b505050565b6105df610efe565b73ffffffffffffffffffffffffffffffffffffffff168173ffffffffffffffffffffffffffffffffffffffff161461064c576040517f08c379a000000000000000000000000000000000000000000000000000000000815260040161064390612556565b60405180910390fd5b6106568282610f06565b5050565b60006007600086815260200190815260200160002060009054906101000a900460ff16156106955761068e85858585610f3a565b90506106a2565b61069f8585611011565b90505b949350505050565b60086020528060005260406000206000915090505481565b6000801b6106cf81610eb6565b6007600087815260200190815260200160002060009054906101000a900460ff16156107875761078286868680806020026020016040519081016040528093929190818152602001838360200280828437600081840152601f19601f82011690508083019250505050505050858580806020026020016040519081016040528093929190818152602001838360200280828437600081840152601f19601f8201169050808301925050505050505061108a565b6107d3565b6107d286868680806020026020016040519081016040528093929190818152602001838360200280828437600081840152601f19601f8201169050808301925050505050505061122d565b5b505050505050565b6107e3610efe565b73ffffffffffffffffffffffffffffffffffffffff166108016108be565b73ffffffffffffffffffffffffffffffffffffffff1614610857576040517f08c379a000000000000000000000000000000000000000000000000000000000815260040161084e90612536565b60405180910390fd5b6108616000611388565b565b6000801b61087081610eb6565b8484600360008981526020019081526020016000209190610892929190611d4b565b5082826004600089815260200190815260200160002091906108b5929190611deb565b50505050505050565b60008060009054906101000a900473ffffffffffffffffffffffffffffffffffffffff16905090565b600061090e826002600086815260200190815260200160002061144c90919063ffffffff16565b905092915050565b60006001600084815260200190815260200160002060000160008373ffffffffffffffffffffffffffffffffffffffff1673ffffffffffffffffffffffffffffffffffffffff16815260200190815260200160002060009054906101000a900460ff16905092915050565b6000801b81565b60076020528060005260406000206000915054906101000a900460ff1681565b60006109c560026000848152602001908152602001600020611466565b9050919050565b6006602052816000526040600020602052806000526040600020600091509150505481565b6109fa82610570565b610a0381610eb6565b610a0d8383610f06565b505050565b610a1a610efe565b73ffffffffffffffffffffffffffffffffffffffff16610a386108be565b73ffffffffffffffffffffffffffffffffffffffff1614610a8e576040517f08c379a0000000000000000000000000000000000000000000000000000000008152600401610a8590612536565b60405180910390fd5b600073ffffffffffffffffffffffffffffffffffffffff168173ffffffffffffffffffffffffffffffffffffffff161415610afe576040517f08c379a0000000000000000000000000000000000000000000000000000000008152600401610af590612516565b60405180910390fd5b610b0781611388565b50565b60036020528160005260406000208181548110610b2657600080fd5b906000526020600020016000915091509054906101000a900473ffffffffffffffffffffffffffffffffffffffff1681565b60046020528160005260406000208181548110610b7457600080fd5b90600052602060002001600091509150505481565b6000801b610b9681610eb6565b6007600085815260200190815260200160002060009054906101000a900460ff1615610c0c57610c0784848480806020026020016040519081016040528093929190818152602001838360200280828437600081840152601f19601f8201169050808301925050505050505061147b565b610c58565b610c5784848480806020026020016040519081016040528093929190818152602001838360200280828437600081840152601f19601f820116905080830192505050505050506115b9565b5b50505050565b6000806000801b610c6e81610eb6565b600360008681526020019081526020016000208481548110610c9357610c9261281e565b5b9060005260206000200160009054906101000a900473ffffffffffffffffffffffffffffffffffffffff16925082600460008781526020019081526020016000208581548110610ce657610ce561281e565b5b906000526020600020015492509250509250929050565b60056020528160005260406000206020528060005260406000206000915091509054906101000a900460ff1681565b610d368282610916565b610e0857600180600084815260200190815260200160002060000160008373ffffffffffffffffffffffffffffffffffffffff1673ffffffffffffffffffffffffffffffffffffffff16815260200190815260200160002060006101000a81548160ff021916908315150217905550610dad610efe565b73ffffffffffffffffffffffffffffffffffffffff168173ffffffffffffffffffffffffffffffffffffffff16837f2f8788117e7eff1d82e926ec794901d17c78024a50270940304540a733656f0d60405160405180910390a45b5050565b6000610e34836000018373ffffffffffffffffffffffffffffffffffffffff1660001b611713565b905092915050565b60007f7965db0b000000000000000000000000000000000000000000000000000000007bffffffffffffffffffffffffffffffffffffffffffffffffffffffff1916827bffffffffffffffffffffffffffffffffffffffffffffffffffffffff19161480610eaf5750610eae82611783565b5b9050919050565b610ec781610ec2610efe565b6117ed565b50565b610ed48282610d2c565b610ef98160026000858152602001908152602001600020610e0c90919063ffffffff16565b505050565b600033905090565b610f10828261188a565b610f35816002600085815260200190815260200160002061196c90919063ffffffff16565b505050565b6000806006600087815260200190815260200160002060008673ffffffffffffffffffffffffffffffffffffffff1673ffffffffffffffffffffffffffffffffffffffff16815260200190815260200160002054118015610ff657508183610fa291906125b8565b6006600087815260200190815260200160002060008673ffffffffffffffffffffffffffffffffffffffff1673ffffffffffffffffffffffffffffffffffffffff1681526020019081526020016000205410155b156110045760019050611009565b600090505b949350505050565b60006005600084815260200190815260200160002060008373ffffffffffffffffffffffffffffffffffffffff1673ffffffffffffffffffffffffffffffffffffffff16815260200190815260200160002060009054906101000a900460ff161561107f5760019050611084565b600090505b92915050565b80518251146110ce576040517f08c379a00000000000000000000000000000000000000000000000000000000081526004016110c5906124f6565b60405180910390fd5b60008251905060005b818110156112265760008060066000888152602001908152602001600020600087858151811061110a5761110961281e565b5b602002602001015173ffffffffffffffffffffffffffffffffffffffff1673ffffffffffffffffffffffffffffffffffffffff16815260200190815260200160002054111561115857600190505b83828151811061116b5761116a61281e565b5b602002602001015160066000888152602001908152602001600020600087858151811061119b5761119a61281e565b5b602002602001015173ffffffffffffffffffffffffffffffffffffffff1673ffffffffffffffffffffffffffffffffffffffff168152602001908152602001600020819055508061121257600160086000888152602001908152602001600020600082825461120a91906125b8565b925050819055505b50808061121e90612777565b9150506110d7565b5050505050565b60008151905060005b81811015611382576005600085815260200190815260200160002060008483815181106112665761126561281e565b5b602002602001015173ffffffffffffffffffffffffffffffffffffffff1673ffffffffffffffffffffffffffffffffffffffff16815260200190815260200160002060009054906101000a900460ff16156112c05761136f565b60016005600086815260200190815260200160002060008584815181106112ea576112e961281e565b5b602002602001015173ffffffffffffffffffffffffffffffffffffffff1673ffffffffffffffffffffffffffffffffffffffff16815260200190815260200160002060006101000a81548160ff021916908315150217905550600160086000868152602001908152602001600020600082825461136791906125b8565b925050819055505b808061137a90612777565b915050611236565b50505050565b60008060009054906101000a900473ffffffffffffffffffffffffffffffffffffffff169050816000806101000a81548173ffffffffffffffffffffffffffffffffffffffff021916908373ffffffffffffffffffffffffffffffffffffffff1602179055508173ffffffffffffffffffffffffffffffffffffffff168173ffffffffffffffffffffffffffffffffffffffff167f8be0079c531659141344cd1fd0a4f28419497f9722a3daafe3b4186f6b6457e060405160405180910390a35050565b600061145b836000018361199c565b60001c905092915050565b6000611474826000016119c7565b9050919050565b60008151905060005b818110156115b35760006006600086815260200190815260200160002060008584815181106114b6576114b561281e565b5b602002602001015173ffffffffffffffffffffffffffffffffffffffff1673ffffffffffffffffffffffffffffffffffffffff168152602001908152602001600020541415611504576115a0565b600060066000868152602001908152602001600020600085848151811061152e5761152d61281e565b5b602002602001015173ffffffffffffffffffffffffffffffffffffffff1673ffffffffffffffffffffffffffffffffffffffff1681526020019081526020016000208190555060016008600086815260200190815260200160002060008282546115989190612668565b925050819055505b80806115ab90612777565b915050611484565b50505050565b60008151905060005b8181101561170d576005600085815260200190815260200160002060008483815181106115f2576115f161281e565b5b602002602001015173ffffffffffffffffffffffffffffffffffffffff1673ffffffffffffffffffffffffffffffffffffffff16815260200190815260200160002060009054906101000a900460ff1661164b576116fa565b60006005600086815260200190815260200160002060008584815181106116755761167461281e565b5b602002602001015173ffffffffffffffffffffffffffffffffffffffff1673ffffffffffffffffffffffffffffffffffffffff16815260200190815260200160002060006101000a81548160ff02191690831515021790555060016008600086815260200190815260200160002060008282546116f29190612668565b925050819055505b808061170590612777565b9150506115c2565b50505050565b600061171f83836119d8565b61177857826000018290806001815401808255809150506001900390600052602060002001600090919091909150558260000180549050836001016000848152602001908152602001600020819055506001905061177d565b600090505b92915050565b60007f01ffc9a7000000000000000000000000000000000000000000000000000000007bffffffffffffffffffffffffffffffffffffffffffffffffffffffff1916827bffffffffffffffffffffffffffffffffffffffffffffffffffffffff1916149050919050565b6117f78282610916565b6118865761181c8173ffffffffffffffffffffffffffffffffffffffff1660146119fb565b61182a8360001c60206119fb565b60405160200161183b929190612400565b6040516020818303038152906040526040517f08c379a000000000000000000000000000000000000000000000000000000000815260040161187d91906124b4565b60405180910390fd5b5050565b6118948282610916565b156119685760006001600084815260200190815260200160002060000160008373ffffffffffffffffffffffffffffffffffffffff1673ffffffffffffffffffffffffffffffffffffffff16815260200190815260200160002060006101000a81548160ff02191690831515021790555061190d610efe565b73ffffffffffffffffffffffffffffffffffffffff168173ffffffffffffffffffffffffffffffffffffffff16837ff6391f5c32d9c69d2a47ea670b442974b53935d1edc7fd64eb21e047a839171b60405160405180910390a45b5050565b6000611994836000018373ffffffffffffffffffffffffffffffffffffffff1660001b611c37565b905092915050565b60008260000182815481106119b4576119b361281e565b5b9060005260206000200154905092915050565b600081600001805490509050919050565b600080836001016000848152602001908152602001600020541415905092915050565b606060006002836002611a0e919061260e565b611a1891906125b8565b67ffffffffffffffff811115611a3157611a3061284d565b5b6040519080825280601f01601f191660200182016040528015611a635781602001600182028036833780820191505090505b5090507f300000000000000000000000000000000000000000000000000000000000000081600081518110611a9b57611a9a61281e565b5b60200101907effffffffffffffffffffffffffffffffffffffffffffffffffffffffffffff1916908160001a9053507f780000000000000000000000000000000000000000000000000000000000000081600181518110611aff57611afe61281e565b5b60200101907effffffffffffffffffffffffffffffffffffffffffffffffffffffffffffff1916908160001a90535060006001846002611b3f919061260e565b611b4991906125b8565b90505b6001811115611be9577f3031323334353637383961626364656600000000000000000000000000000000600f861660108110611b8b57611b8a61281e565b5b1a60f81b828281518110611ba257611ba161281e565b5b60200101907effffffffffffffffffffffffffffffffffffffffffffffffffffffffffffff1916908160001a905350600485901c945080611be29061274d565b9050611b4c565b5060008414611c2d576040517f08c379a0000000000000000000000000000000000000000000000000000000008152600401611c24906124d6565b60405180910390fd5b8091505092915050565b60008083600101600084815260200190815260200160002054905060008114611d3f576000600182611c699190612668565b9050600060018660000180549050611c819190612668565b9050818114611cf0576000866000018281548110611ca257611ca161281e565b5b9060005260206000200154905080876000018481548110611cc657611cc561281e565b5b90600052602060002001819055508387600101600083815260200190815260200160002081905550505b85600001805480611d0457611d036127ef565b5b600190038181906000526020600020016000905590558560010160008681526020019081526020016000206000905560019350505050611d45565b60009150505b92915050565b828054828255906000526020600020908101928215611dda579160200282015b82811115611dd957823573ffffffffffffffffffffffffffffffffffffffff168260006101000a81548173ffffffffffffffffffffffffffffffffffffffff021916908373ffffffffffffffffffffffffffffffffffffffff16021790555091602001919060010190611d6b565b5b509050611de79190611e38565b5090565b828054828255906000526020600020908101928215611e27579160200282015b82811115611e26578235825591602001919060010190611e0b565b5b509050611e349190611e38565b5090565b5b80821115611e51576000816000905550600101611e39565b5090565b600081359050611e6481612a11565b92915050565b60008083601f840112611e8057611e7f612881565b5b8235905067ffffffffffffffff811115611e9d57611e9c61287c565b5b602083019150836020820283011115611eb957611eb8612886565b5b9250929050565b60008083601f840112611ed657611ed5612881565b5b8235905067ffffffffffffffff811115611ef357611ef261287c565b5b602083019150836020820283011115611f0f57611f0e612886565b5b9250929050565b600081359050611f2581612a28565b92915050565b600081359050611f3a81612a3f565b92915050565b600081359050611f4f81612a56565b92915050565b600060208284031215611f6b57611f6a612890565b5b6000611f7984828501611e55565b91505092915050565b600060208284031215611f9857611f97612890565b5b6000611fa684828501611f16565b91505092915050565b60008060408385031215611fc657611fc5612890565b5b6000611fd485828601611f16565b9250506020611fe585828601611e55565b9150509250929050565b6000806040838503121561200657612005612890565b5b600061201485828601611f16565b925050602061202585828601611f40565b9150509250929050565b60006020828403121561204557612044612890565b5b600061205384828501611f2b565b91505092915050565b60006020828403121561207257612071612890565b5b600061208084828501611f40565b91505092915050565b600080604083850312156120a05761209f612890565b5b60006120ae85828601611f40565b92505060206120bf85828601611e55565b9150509250929050565b600080600080608085870312156120e3576120e2612890565b5b60006120f187828801611f40565b945050602061210287828801611e55565b935050604061211387828801611f40565b925050606061212487828801611f40565b91505092959194509250565b60008060006040848603121561214957612148612890565b5b600061215786828701611f40565b935050602084013567ffffffffffffffff8111156121785761217761288b565b5b61218486828701611e6a565b92509250509250925092565b6000806000806000606086880312156121ac576121ab612890565b5b60006121ba88828901611f40565b955050602086013567ffffffffffffffff8111156121db576121da61288b565b5b6121e788828901611e6a565b9450945050604086013567ffffffffffffffff81111561220a5761220961288b565b5b61221688828901611ec0565b92509250509295509295909350565b6000806040838503121561223c5761223b612890565b5b600061224a85828601611f40565b925050602061225b85828601611f40565b9150509250929050565b61226e8161269c565b82525050565b61227d816126ae565b82525050565b61228c816126ba565b82525050565b600061229d82612591565b6122a7818561259c565b93506122b781856020860161271a565b6122c081612895565b840191505092915050565b60006122d682612591565b6122e081856125ad565b93506122f081856020860161271a565b80840191505092915050565b600061230960208361259c565b9150612314826128a6565b602082019050919050565b600061232c60208361259c565b9150612337826128cf565b602082019050919050565b600061234f60268361259c565b915061235a826128f8565b604082019050919050565b600061237260208361259c565b915061237d82612947565b602082019050919050565b60006123956017836125ad565b91506123a082612970565b601782019050919050565b60006123b86011836125ad565b91506123c382612999565b601182019050919050565b60006123db602f8361259c565b91506123e6826129c2565b604082019050919050565b6123fa81612710565b82525050565b600061240b82612388565b915061241782856122cb565b9150612422826123ab565b915061242e82846122cb565b91508190509392505050565b600060208201905061244f6000830184612265565b92915050565b600060408201905061246a6000830185612265565b61247760208301846123f1565b9392505050565b60006020820190506124936000830184612274565b92915050565b60006020820190506124ae6000830184612283565b92915050565b600060208201905081810360008301526124ce8184612292565b905092915050565b600060208201905081810360008301526124ef816122fc565b9050919050565b6000602082019050818103600083015261250f8161231f565b9050919050565b6000602082019050818103600083015261252f81612342565b9050919050565b6000602082019050818103600083015261254f81612365565b9050919050565b6000602082019050818103600083015261256f816123ce565b9050919050565b600060208201905061258b60008301846123f1565b92915050565b600081519050919050565b600082825260208201905092915050565b600081905092915050565b60006125c382612710565b91506125ce83612710565b9250827fffffffffffffffffffffffffffffffffffffffffffffffffffffffffffffffff03821115612603576126026127c0565b5b828201905092915050565b600061261982612710565b915061262483612710565b9250817fffffffffffffffffffffffffffffffffffffffffffffffffffffffffffffffff048311821515161561265d5761265c6127c0565b5b828202905092915050565b600061267382612710565b915061267e83612710565b925082821015612691576126906127c0565b5b828203905092915050565b60006126a7826126f0565b9050919050565b60008115159050919050565b6000819050919050565b60007fffffffff0000000000000000000000000000000000000000000000000000000082169050919050565b600073ffffffffffffffffffffffffffffffffffffffff82169050919050565b6000819050919050565b60005b8381101561273857808201518184015260208101905061271d565b83811115612747576000848401525b50505050565b600061275882612710565b9150600082141561276c5761276b6127c0565b5b600182039050919050565b600061278282612710565b91507fffffffffffffffffffffffffffffffffffffffffffffffffffffffffffffffff8214156127b5576127b46127c0565b5b600182019050919050565b7f4e487b7100000000000000000000000000000000000000000000000000000000600052601160045260246000fd5b7f4e487b7100000000000000000000000000000000000000000000000000000000600052603160045260246000fd5b7f4e487b7100000000000000000000000000000000000000000000000000000000600052603260045260246000fd5b7f4e487b7100000000000000000000000000000000000000000000000000000000600052604160045260246000fd5b600080fd5b600080fd5b600080fd5b600080fd5b600080fd5b6000601f19601f8301169050919050565b7f537472696e67733a20686578206c656e67746820696e73756666696369656e74600082015250565b7f74776f20617272617973206d75737420686176652073616d65206c656e677468600082015250565b7f4f776e61626c653a206e6577206f776e657220697320746865207a65726f206160008201527f6464726573730000000000000000000000000000000000000000000000000000602082015250565b7f4f776e61626c653a2063616c6c6572206973206e6f7420746865206f776e6572600082015250565b7f416363657373436f6e74726f6c3a206163636f756e7420000000000000000000600082015250565b7f206973206d697373696e6720726f6c6520000000000000000000000000000000600082015250565b7f416363657373436f6e74726f6c3a2063616e206f6e6c792072656e6f756e636560008201527f20726f6c657320666f722073656c660000000000000000000000000000000000602082015250565b612a1a8161269c565b8114612a2557600080fd5b50565b612a31816126ba565b8114612a3c57600080fd5b50565b612a48816126c4565b8114612a5357600080fd5b50565b612a5f81612710565b8114612a6a57600080fd5b5056fea2646970667358221220955bcf6f672168835c68519ded8d40026c1fda3e915b2692e42542173f10a80064736f6c63430008070033",
  "linkReferences": {},
  "deployedLinkReferences": {}
}