{
  "_format": "hh-sol-artifact-1",
  "contractName": "OwnableKIP17",
  "sourceName": "contracts/OwnableKIP17.sol",
  "abi": [
    {
      "inputs": [
        {
          "internalType": "string",
          "name": "name",
          "type": "string"
        },
        {
          "internalType": "string",
          "name": "symbol",
          "type": "string"
        }
      ],
      "stateMutability": "nonpayable",
      "type": "constructor"
    },
    {
      "anonymous": false,
      "inputs": [
        {
          "indexed": true,
          "internalType": "address",
          "name": "owner",
          "type": "address"
        },
        {
          "indexed": true,
          "internalType": "address",
          "name": "approved",
          "type": "address"
        },
        {
          "indexed": true,
          "internalType": "uint256",
          "name": "tokenId",
          "type": "uint256"
        }
      ],
      "name": "Approval",
      "type": "event"
    },
    {
      "anonymous": false,
      "inputs": [
        {
          "indexed": true,
          "internalType": "address",
          "name": "owner",
          "type": "address"
        },
        {
          "indexed": true,
          "internalType": "address",
          "name": "operator",
          "type": "address"
        },
        {
          "indexed": false,
          "internalType": "bool",
          "name": "approved",
          "type": "bool"
        }
      ],
      "name": "ApprovalForAll",
      "type": "event"
    },
    {
      "anonymous": false,
      "inputs": [
        {
          "indexed": true,
          "internalType": "address",
          "name": "previousOwner",
          "type": "address"
        },
        {
          "indexed": true,
          "internalType": "address",
          "name": "newOwner",
          "type": "address"
        }
      ],
      "name": "OwnershipTransferred",
      "type": "event"
    },
    {
      "anonymous": false,
      "inputs": [
        {
          "indexed": false,
          "internalType": "address",
          "name": "account",
          "type": "address"
        }
      ],
      "name": "Paused",
      "type": "event"
    },
    {
      "anonymous": false,
      "inputs": [
        {
          "indexed": true,
          "internalType": "bytes32",
          "name": "role",
          "type": "bytes32"
        },
        {
          "indexed": true,
          "internalType": "bytes32",
          "name": "previousAdminRole",
          "type": "bytes32"
        },
        {
          "indexed": true,
          "internalType": "bytes32",
          "name": "newAdminRole",
          "type": "bytes32"
        }
      ],
      "name": "RoleAdminChanged",
      "type": "event"
    },
    {
      "anonymous": false,
      "inputs": [
        {
          "indexed": true,
          "internalType": "bytes32",
          "name": "role",
          "type": "bytes32"
        },
        {
          "indexed": true,
          "internalType": "address",
          "name": "account",
          "type": "address"
        },
        {
          "indexed": true,
          "internalType": "address",
          "name": "sender",
          "type": "address"
        }
      ],
      "name": "RoleGranted",
      "type": "event"
    },
    {
      "anonymous": false,
      "inputs": [
        {
          "indexed": true,
          "internalType": "bytes32",
          "name": "role",
          "type": "bytes32"
        },
        {
          "indexed": true,
          "internalType": "address",
          "name": "account",
          "type": "address"
        },
        {
          "indexed": true,
          "internalType": "address",
          "name": "sender",
          "type": "address"
        }
      ],
      "name": "RoleRevoked",
      "type": "event"
    },
    {
      "anonymous": false,
      "inputs": [
        {
          "indexed": true,
          "internalType": "address",
          "name": "from",
          "type": "address"
        },
        {
          "indexed": true,
          "internalType": "address",
          "name": "to",
          "type": "address"
        },
        {
          "indexed": true,
          "internalType": "uint256",
          "name": "tokenId",
          "type": "uint256"
        }
      ],
      "name": "Transfer",
      "type": "event"
    },
    {
      "anonymous": false,
      "inputs": [
        {
          "indexed": false,
          "internalType": "address",
          "name": "account",
          "type": "address"
        }
      ],
      "name": "Unpaused",
      "type": "event"
    },
    {
      "inputs": [],
      "name": "DEFAULT_ADMIN_ROLE",
      "outputs": [
        {
          "internalType": "bytes32",
          "name": "",
          "type": "bytes32"
        }
      ],
      "stateMutability": "view",
      "type": "function"
    },
    {
      "inputs": [],
      "name": "MINTER_ROLE",
      "outputs": [
        {
          "internalType": "bytes32",
          "name": "",
          "type": "bytes32"
        }
      ],
      "stateMutability": "view",
      "type": "function"
    },
    {
      "inputs": [],
      "name": "PAUSER_ROLE",
      "outputs": [
        {
          "internalType": "bytes32",
          "name": "",
          "type": "bytes32"
        }
      ],
      "stateMutability": "view",
      "type": "function"
    },
    {
      "inputs": [
        {
          "internalType": "address",
          "name": "account",
          "type": "address"
        }
      ],
      "name": "addMinter",
      "outputs": [],
      "stateMutability": "nonpayable",
      "type": "function"
    },
    {
      "inputs": [
        {
          "internalType": "address",
          "name": "_account",
          "type": "address"
        }
      ],
      "name": "addPauser",
      "outputs": [],
      "stateMutability": "nonpayable",
      "type": "function"
    },
    {
      "inputs": [
        {
          "internalType": "address",
          "name": "to",
          "type": "address"
        },
        {
          "internalType": "uint256",
          "name": "tokenId",
          "type": "uint256"
        }
      ],
      "name": "approve",
      "outputs": [],
      "stateMutability": "nonpayable",
      "type": "function"
    },
    {
      "inputs": [
        {
          "internalType": "address",
          "name": "owner",
          "type": "address"
        }
      ],
      "name": "balanceOf",
      "outputs": [
        {
          "internalType": "uint256",
          "name": "",
          "type": "uint256"
        }
      ],
      "stateMutability": "view",
      "type": "function"
    },
    {
      "inputs": [
        {
          "internalType": "uint256",
          "name": "tokenId",
          "type": "uint256"
        }
      ],
      "name": "burn",
      "outputs": [],
      "stateMutability": "nonpayable",
      "type": "function"
    },
    {
      "inputs": [
        {
          "internalType": "uint256",
          "name": "tokenId",
          "type": "uint256"
        }
      ],
      "name": "getApproved",
      "outputs": [
        {
          "internalType": "address",
          "name": "",
          "type": "address"
        }
      ],
      "stateMutability": "view",
      "type": "function"
    },
    {
      "inputs": [
        {
          "internalType": "bytes32",
          "name": "role",
          "type": "bytes32"
        }
      ],
      "name": "getRoleAdmin",
      "outputs": [
        {
          "internalType": "bytes32",
          "name": "",
          "type": "bytes32"
        }
      ],
      "stateMutability": "view",
      "type": "function"
    },
    {
      "inputs": [
        {
          "internalType": "bytes32",
          "name": "role",
          "type": "bytes32"
        },
        {
          "internalType": "uint256",
          "name": "index",
          "type": "uint256"
        }
      ],
      "name": "getRoleMember",
      "outputs": [
        {
          "internalType": "address",
          "name": "",
          "type": "address"
        }
      ],
      "stateMutability": "view",
      "type": "function"
    },
    {
      "inputs": [
        {
          "internalType": "bytes32",
          "name": "role",
          "type": "bytes32"
        }
      ],
      "name": "getRoleMemberCount",
      "outputs": [
        {
          "internalType": "uint256",
          "name": "",
          "type": "uint256"
        }
      ],
      "stateMutability": "view",
      "type": "function"
    },
    {
      "inputs": [
        {
          "internalType": "bytes32",
          "name": "role",
          "type": "bytes32"
        },
        {
          "internalType": "address",
          "name": "account",
          "type": "address"
        }
      ],
      "name": "grantRole",
      "outputs": [],
      "stateMutability": "nonpayable",
      "type": "function"
    },
    {
      "inputs": [
        {
          "internalType": "bytes32",
          "name": "role",
          "type": "bytes32"
        },
        {
          "internalType": "address",
          "name": "account",
          "type": "address"
        }
      ],
      "name": "hasRole",
      "outputs": [
        {
          "internalType": "bool",
          "name": "",
          "type": "bool"
        }
      ],
      "stateMutability": "view",
      "type": "function"
    },
    {
      "inputs": [
        {
          "internalType": "address",
          "name": "owner",
          "type": "address"
        },
        {
          "internalType": "address",
          "name": "operator",
          "type": "address"
        }
      ],
      "name": "isApprovedForAll",
      "outputs": [
        {
          "internalType": "bool",
          "name": "",
          "type": "bool"
        }
      ],
      "stateMutability": "view",
      "type": "function"
    },
    {
      "inputs": [
        {
          "internalType": "address",
          "name": "account",
          "type": "address"
        }
      ],
      "name": "isMinter",
      "outputs": [
        {
          "internalType": "bool",
          "name": "",
          "type": "bool"
        }
      ],
      "stateMutability": "view",
      "type": "function"
    },
    {
      "inputs": [
        {
          "internalType": "address",
          "name": "_account",
          "type": "address"
        }
      ],
      "name": "isPauser",
      "outputs": [
        {
          "internalType": "bool",
          "name": "",
          "type": "bool"
        }
      ],
      "stateMutability": "view",
      "type": "function"
    },
    {
      "inputs": [
        {
          "internalType": "address",
          "name": "to",
          "type": "address"
        },
        {
          "internalType": "uint256",
          "name": "tokenId",
          "type": "uint256"
        },
        {
          "internalType": "string",
          "name": "_tokenURI",
          "type": "string"
        }
      ],
      "name": "mintWithTokenURI",
      "outputs": [
        {
          "internalType": "bool",
          "name": "",
          "type": "bool"
        }
      ],
      "stateMutability": "nonpayable",
      "type": "function"
    },
    {
      "inputs": [],
      "name": "name",
      "outputs": [
        {
          "internalType": "string",
          "name": "",
          "type": "string"
        }
      ],
      "stateMutability": "view",
      "type": "function"
    },
    {
      "inputs": [],
      "name": "owner",
      "outputs": [
        {
          "internalType": "address",
          "name": "",
          "type": "address"
        }
      ],
      "stateMutability": "view",
      "type": "function"
    },
    {
      "inputs": [
        {
          "internalType": "uint256",
          "name": "tokenId",
          "type": "uint256"
        }
      ],
      "name": "ownerOf",
      "outputs": [
        {
          "internalType": "address",
          "name": "",
          "type": "address"
        }
      ],
      "stateMutability": "view",
      "type": "function"
    },
    {
      "inputs": [],
      "name": "pause",
      "outputs": [],
      "stateMutability": "nonpayable",
      "type": "function"
    },
    {
      "inputs": [],
      "name": "paused",
      "outputs": [
        {
          "internalType": "bool",
          "name": "",
          "type": "bool"
        }
      ],
      "stateMutability": "view",
      "type": "function"
    },
    {
      "inputs": [],
      "name": "renounceMinter",
      "outputs": [],
      "stateMutability": "nonpayable",
      "type": "function"
    },
    {
      "inputs": [],
      "name": "renounceOwnership",
      "outputs": [],
      "stateMutability": "nonpayable",
      "type": "function"
    },
    {
      "inputs": [],
      "name": "renouncePauser",
      "outputs": [],
      "stateMutability": "nonpayable",
      "type": "function"
    },
    {
      "inputs": [
        {
          "internalType": "bytes32",
          "name": "role",
          "type": "bytes32"
        },
        {
          "internalType": "address",
          "name": "account",
          "type": "address"
        }
      ],
      "name": "renounceRole",
      "outputs": [],
      "stateMutability": "nonpayable",
      "type": "function"
    },
    {
      "inputs": [
        {
          "internalType": "bytes32",
          "name": "role",
          "type": "bytes32"
        },
        {
          "internalType": "address",
          "name": "account",
          "type": "address"
        }
      ],
      "name": "revokeRole",
      "outputs": [],
      "stateMutability": "nonpayable",
      "type": "function"
    },
    {
      "inputs": [
        {
          "internalType": "address",
          "name": "from",
          "type": "address"
        },
        {
          "internalType": "address",
          "name": "to",
          "type": "address"
        },
        {
          "internalType": "uint256",
          "name": "tokenId",
          "type": "uint256"
        }
      ],
      "name": "safeTransferFrom",
      "outputs": [],
      "stateMutability": "nonpayable",
      "type": "function"
    },
    {
      "inputs": [
        {
          "internalType": "address",
          "name": "from",
          "type": "address"
        },
        {
          "internalType": "address",
          "name": "to",
          "type": "address"
        },
        {
          "internalType": "uint256",
          "name": "tokenId",
          "type": "uint256"
        },
        {
          "internalType": "bytes",
          "name": "_data",
          "type": "bytes"
        }
      ],
      "name": "safeTransferFrom",
      "outputs": [],
      "stateMutability": "nonpayable",
      "type": "function"
    },
    {
      "inputs": [
        {
          "internalType": "address",
          "name": "operator",
          "type": "address"
        },
        {
          "internalType": "bool",
          "name": "approved",
          "type": "bool"
        }
      ],
      "name": "setApprovalForAll",
      "outputs": [],
      "stateMutability": "nonpayable",
      "type": "function"
    },
    {
      "inputs": [
        {
          "internalType": "bytes4",
          "name": "interfaceId",
          "type": "bytes4"
        }
      ],
      "name": "supportsInterface",
      "outputs": [
        {
          "internalType": "bool",
          "name": "",
          "type": "bool"
        }
      ],
      "stateMutability": "view",
      "type": "function"
    },
    {
      "inputs": [],
      "name": "symbol",
      "outputs": [
        {
          "internalType": "string",
          "name": "",
          "type": "string"
        }
      ],
      "stateMutability": "view",
      "type": "function"
    },
    {
      "inputs": [
        {
          "internalType": "uint256",
          "name": "index",
          "type": "uint256"
        }
      ],
      "name": "tokenByIndex",
      "outputs": [
        {
          "internalType": "uint256",
          "name": "",
          "type": "uint256"
        }
      ],
      "stateMutability": "view",
      "type": "function"
    },
    {
      "inputs": [
        {
          "internalType": "address",
          "name": "owner",
          "type": "address"
        },
        {
          "internalType": "uint256",
          "name": "index",
          "type": "uint256"
        }
      ],
      "name": "tokenOfOwnerByIndex",
      "outputs": [
        {
          "internalType": "uint256",
          "name": "",
          "type": "uint256"
        }
      ],
      "stateMutability": "view",
      "type": "function"
    },
    {
      "inputs": [
        {
          "internalType": "uint256",
          "name": "tokenId",
          "type": "uint256"
        }
      ],
      "name": "tokenURI",
      "outputs": [
        {
          "internalType": "string",
          "name": "",
          "type": "string"
        }
      ],
      "stateMutability": "view",
      "type": "function"
    },
    {
      "inputs": [],
      "name": "totalSupply",
      "outputs": [
        {
          "internalType": "uint256",
          "name": "",
          "type": "uint256"
        }
      ],
      "stateMutability": "view",
      "type": "function"
    },
    {
      "inputs": [
        {
          "internalType": "address",
          "name": "from",
          "type": "address"
        },
        {
          "internalType": "address",
          "name": "to",
          "type": "address"
        },
        {
          "internalType": "uint256",
          "name": "tokenId",
          "type": "uint256"
        }
      ],
      "name": "transferFrom",
      "outputs": [],
      "stateMutability": "nonpayable",
      "type": "function"
    },
    {
      "inputs": [
        {
          "internalType": "address",
          "name": "newOwner",
          "type": "address"
        }
      ],
      "name": "transferOwnership",
      "outputs": [],
      "stateMutability": "nonpayable",
      "type": "function"
    },
    {
      "inputs": [],
      "name": "unpause",
      "outputs": [],
      "stateMutability": "nonpayable",
      "type": "function"
    }
  ],
  "bytecode": "0x60806040523480156200001157600080fd5b5060405162005e0b38038062005e0b8339818101604052810190620000379190620005e2565b8181816000908051906020019062000051929190620004b4565b5080600190805190602001906200006a929190620004b4565b5050506000600760006101000a81548160ff021916908315150217905550620000a86200009c6200015660201b60201c565b6200015e60201b60201c565b620000cc6000801b620000c06200015660201b60201c565b6200022460201b60201c565b6200010d7f879d41736c42986c020ca99e1e88db6c24a0b4923eb26f2115159827a9ccb72e620001016200015660201b60201c565b6200022460201b60201c565b6200014e7f3da911522173425ad77c4d334b95579cbb700456fef38bcc10dbcfbae688c2bc620001426200015660201b60201c565b6200022460201b60201c565b5050620007eb565b600033905090565b6000600e60009054906101000a900473ffffffffffffffffffffffffffffffffffffffff16905081600e60006101000a81548173ffffffffffffffffffffffffffffffffffffffff021916908373ffffffffffffffffffffffffffffffffffffffff1602179055508173ffffffffffffffffffffffffffffffffffffffff168173ffffffffffffffffffffffffffffffffffffffff167f8be0079c531659141344cd1fd0a4f28419497f9722a3daafe3b4186f6b6457e060405160405180910390a35050565b6200023682826200023a60201b60201c565b5050565b6200025182826200028260201b6200154f1760201c565b6200027d81600960008581526020019081526020016000206200037460201b620016301790919060201c565b505050565b620002948282620003ac60201b60201c565b620003705760016008600084815260200190815260200160002060000160008373ffffffffffffffffffffffffffffffffffffffff1673ffffffffffffffffffffffffffffffffffffffff16815260200190815260200160002060006101000a81548160ff021916908315150217905550620003156200015660201b60201c565b73ffffffffffffffffffffffffffffffffffffffff168173ffffffffffffffffffffffffffffffffffffffff16837f2f8788117e7eff1d82e926ec794901d17c78024a50270940304540a733656f0d60405160405180910390a45b5050565b6000620003a4836000018373ffffffffffffffffffffffffffffffffffffffff1660001b6200041760201b60201c565b905092915050565b60006008600084815260200190815260200160002060000160008373ffffffffffffffffffffffffffffffffffffffff1673ffffffffffffffffffffffffffffffffffffffff16815260200190815260200160002060009054906101000a900460ff16905092915050565b60006200042b83836200049160201b60201c565b620004865782600001829080600181540180825580915050600190039060005260206000200160009091909190915055826000018054905083600101600084815260200190815260200160002081905550600190506200048b565b600090505b92915050565b600080836001016000848152602001908152602001600020541415905092915050565b828054620004c290620006fc565b90600052602060002090601f016020900481019282620004e6576000855562000532565b82601f106200050157805160ff191683800117855562000532565b8280016001018555821562000532579182015b828111156200053157825182559160200191906001019062000514565b5b50905062000541919062000545565b5090565b5b808211156200056057600081600090555060010162000546565b5090565b60006200057b620005758462000690565b62000667565b9050828152602081018484840111156200059a5762000599620007cb565b5b620005a7848285620006c6565b509392505050565b600082601f830112620005c757620005c6620007c6565b5b8151620005d984826020860162000564565b91505092915050565b60008060408385031215620005fc57620005fb620007d5565b5b600083015167ffffffffffffffff8111156200061d576200061c620007d0565b5b6200062b85828601620005af565b925050602083015167ffffffffffffffff8111156200064f576200064e620007d0565b5b6200065d85828601620005af565b9150509250929050565b60006200067362000686565b905062000681828262000732565b919050565b6000604051905090565b600067ffffffffffffffff821115620006ae57620006ad62000797565b5b620006b982620007da565b9050602081019050919050565b60005b83811015620006e6578082015181840152602081019050620006c9565b83811115620006f6576000848401525b50505050565b600060028204905060018216806200071557607f821691505b602082108114156200072c576200072b62000768565b5b50919050565b6200073d82620007da565b810181811067ffffffffffffffff821117156200075f576200075e62000797565b5b80604052505050565b7f4e487b7100000000000000000000000000000000000000000000000000000000600052602260045260246000fd5b7f4e487b7100000000000000000000000000000000000000000000000000000000600052604160045260246000fd5b600080fd5b600080fd5b600080fd5b600080fd5b6000601f19601f8301169050919050565b61561080620007fb6000396000f3fe608060405234801561001057600080fd5b50600436106102485760003560e01c8063715018a61161013b578063a22cb465116100b8578063d53913931161007c578063d5391393146106eb578063d547741f14610709578063e63ab1e914610725578063e985e9c514610743578063f2fde38b1461077357610248565b8063a22cb46514610623578063aa271e1a1461063f578063b88d4fde1461066f578063c87b56dd1461068b578063ca15c873146106bb57610248565b806391d14854116100ff57806391d148541461059157806395d89b41146105c1578063983b2d56146105df57806398650275146105fb578063a217fddf1461060557610248565b8063715018a61461051357806382dc1ec41461051d5780638456cb59146105395780638da5cb5b146105435780639010d07c1461056157610248565b80633f4ba83a116101c957806350bb4e7f1161018d57806350bb4e7f1461045b5780635c975abb1461048b5780636352211e146104a95780636ef8d66d146104d957806370a08231146104e357610248565b80633f4ba83a146103b957806342842e0e146103c357806342966c68146103df57806346fbf68e146103fb5780634f6ccce71461042b57610248565b806323b872dd1161021057806323b872dd14610305578063248a9ca3146103215780632f2ff15d146103515780632f745c591461036d57806336568abe1461039d57610248565b806301ffc9a71461024d57806306fdde031461027d578063081812fc1461029b578063095ea7b3146102cb57806318160ddd146102e7575b600080fd5b61026760048036038101906102629190613e5e565b61078f565b60405161027491906144a3565b60405180910390f35b6102856107e1565b60405161029291906144d9565b60405180910390f35b6102b560048036038101906102b09190613eb8565b610873565b6040516102c2919061443c565b60405180910390f35b6102e560048036038101906102e09190613d02565b6108f8565b005b6102ef610a10565b6040516102fc919061487b565b60405180910390f35b61031f600480360381019061031a9190613bec565b610a1d565b005b61033b60048036038101906103369190613db1565b610a7d565b60405161034891906144be565b60405180910390f35b61036b60048036038101906103669190613dde565b610a9d565b005b61038760048036038101906103829190613d02565b610abe565b604051610394919061487b565b60405180910390f35b6103b760048036038101906103b29190613dde565b610b63565b005b6103c1610be6565b005b6103dd60048036038101906103d89190613bec565b610c60565b005b6103f960048036038101906103f49190613eb8565b610c80565b005b61041560048036038101906104109190613b7f565b610cdc565b60405161042291906144a3565b60405180910390f35b61044560048036038101906104409190613eb8565b610d0f565b604051610452919061487b565b60405180910390f35b61047560048036038101906104709190613d42565b610d80565b60405161048291906144a3565b60405180910390f35b610493610dcc565b6040516104a091906144a3565b60405180910390f35b6104c360048036038101906104be9190613eb8565b610ddb565b6040516104d0919061443c565b60405180910390f35b6104e1610e8d565b005b6104fd60048036038101906104f89190613b7f565b610eb9565b60405161050a919061487b565b60405180910390f35b61051b610f71565b005b61053760048036038101906105329190613b7f565b610ff9565b005b610541611034565b005b61054b6110ae565b604051610558919061443c565b60405180910390f35b61057b60048036038101906105769190613e1e565b6110d8565b604051610588919061443c565b60405180910390f35b6105ab60048036038101906105a69190613dde565b611107565b6040516105b891906144a3565b60405180910390f35b6105c9611172565b6040516105d691906144d9565b60405180910390f35b6105f960048036038101906105f49190613b7f565b611204565b005b61060361123f565b005b61060d611272565b60405161061a91906144be565b60405180910390f35b61063d60048036038101906106389190613cc2565b611279565b005b61065960048036038101906106549190613b7f565b61128f565b60405161066691906144a3565b60405180910390f35b61068960048036038101906106849190613c3f565b6112c2565b005b6106a560048036038101906106a09190613eb8565b611324565b6040516106b291906144d9565b60405180910390f35b6106d560048036038101906106d09190613db1565b611336565b6040516106e2919061487b565b60405180910390f35b6106f361135a565b60405161070091906144be565b60405180910390f35b610723600480360381019061071e9190613dde565b61137e565b005b61072d61139f565b60405161073a91906144be565b60405180910390f35b61075d60048036038101906107589190613bac565b6113c3565b60405161076a91906144a3565b60405180910390f35b61078d60048036038101906107889190613b7f565b611457565b005b600061079a82611660565b806107aa57506107a9826116da565b5b806107ba57506107b982611754565b5b806107ca57506107c9826117de565b5b806107da57506107d982611868565b5b9050919050565b6060600080546107f090614b5f565b80601f016020809104026020016040519081016040528092919081815260200182805461081c90614b5f565b80156108695780601f1061083e57610100808354040283529160200191610869565b820191906000526020600020905b81548152906001019060200180831161084c57829003601f168201915b5050505050905090565b600061087e826118e2565b6108bd576040517f08c379a00000000000000000000000000000000000000000000000000000000081526004016108b49061479b565b60405180910390fd5b6004600083815260200190815260200160002060009054906101000a900473ffffffffffffffffffffffffffffffffffffffff169050919050565b600061090382610ddb565b90508073ffffffffffffffffffffffffffffffffffffffff168373ffffffffffffffffffffffffffffffffffffffff161415610974576040517f08c379a000000000000000000000000000000000000000000000000000000000815260040161096b906145db565b60405180910390fd5b8073ffffffffffffffffffffffffffffffffffffffff1661099361194e565b73ffffffffffffffffffffffffffffffffffffffff1614806109c257506109c1816109bc61194e565b6113c3565b5b610a01576040517f08c379a00000000000000000000000000000000000000000000000000000000081526004016109f8906147bb565b60405180910390fd5b610a0b8383611956565b505050565b6000600c80549050905090565b610a2e610a2861194e565b82611a0f565b610a6d576040517f08c379a0000000000000000000000000000000000000000000000000000000008152600401610a649061471b565b60405180910390fd5b610a78838383611aed565b505050565b600060086000838152602001908152602001600020600101549050919050565b610aa682610a7d565b610aaf81611d54565b610ab98383611d68565b505050565b6000610ac983610eb9565b8210610b0a576040517f08c379a0000000000000000000000000000000000000000000000000000000008152600401610b019061465b565b60405180910390fd5b600a60008473ffffffffffffffffffffffffffffffffffffffff1673ffffffffffffffffffffffffffffffffffffffff168152602001908152602001600020600083815260200190815260200160002054905092915050565b610b6b61194e565b73ffffffffffffffffffffffffffffffffffffffff168173ffffffffffffffffffffffffffffffffffffffff1614610bd8576040517f08c379a0000000000000000000000000000000000000000000000000000000008152600401610bcf9061483b565b60405180910390fd5b610be28282611d9c565b5050565b610c177f3da911522173425ad77c4d334b95579cbb700456fef38bcc10dbcfbae688c2bc610c1261194e565b611107565b610c56576040517f08c379a0000000000000000000000000000000000000000000000000000000008152600401610c4d9061459b565b60405180910390fd5b610c5e611dd0565b565b610c7b838383604051806020016040528060008152506112c2565b505050565b610c91610c8b61194e565b82611a0f565b610cd0576040517f08c379a0000000000000000000000000000000000000000000000000000000008152600401610cc7906147db565b60405180910390fd5b610cd981611e72565b50565b6000610d087f3da911522173425ad77c4d334b95579cbb700456fef38bcc10dbcfbae688c2bc83611107565b9050919050565b6000610d19610a10565b8210610d5a576040517f08c379a0000000000000000000000000000000000000000000000000000000008152600401610d519061477b565b60405180910390fd5b600c8281548110610d6e57610d6d614cf8565b5b90600052602060002001549050919050565b60007f879d41736c42986c020ca99e1e88db6c24a0b4923eb26f2115159827a9ccb72e610dac81611d54565b610db68585611e7e565b610dc08484611e9c565b60019150509392505050565b6000610dd6611f10565b905090565b6000806002600084815260200190815260200160002060009054906101000a900473ffffffffffffffffffffffffffffffffffffffff169050600073ffffffffffffffffffffffffffffffffffffffff168173ffffffffffffffffffffffffffffffffffffffff161415610e84576040517f08c379a0000000000000000000000000000000000000000000000000000000008152600401610e7b906146bb565b60405180910390fd5b80915050919050565b610eb77f3da911522173425ad77c4d334b95579cbb700456fef38bcc10dbcfbae688c2bc33610b63565b565b60008073ffffffffffffffffffffffffffffffffffffffff168273ffffffffffffffffffffffffffffffffffffffff161415610f2a576040517f08c379a0000000000000000000000000000000000000000000000000000000008152600401610f219061475b565b60405180910390fd5b600360008373ffffffffffffffffffffffffffffffffffffffff1673ffffffffffffffffffffffffffffffffffffffff168152602001908152602001600020549050919050565b610f7961194e565b73ffffffffffffffffffffffffffffffffffffffff16610f976110ae565b73ffffffffffffffffffffffffffffffffffffffff1614610fed576040517f08c379a0000000000000000000000000000000000000000000000000000000008152600401610fe49061473b565b60405180910390fd5b610ff76000611f27565b565b6000801b61100681611d54565b6110307f3da911522173425ad77c4d334b95579cbb700456fef38bcc10dbcfbae688c2bc83610a9d565b5050565b6110657f3da911522173425ad77c4d334b95579cbb700456fef38bcc10dbcfbae688c2bc61106061194e565b611107565b6110a4576040517f08c379a000000000000000000000000000000000000000000000000000000000815260040161109b9061481b565b60405180910390fd5b6110ac611fed565b565b6000600e60009054906101000a900473ffffffffffffffffffffffffffffffffffffffff16905090565b60006110ff826009600086815260200190815260200160002061209090919063ffffffff16565b905092915050565b60006008600084815260200190815260200160002060000160008373ffffffffffffffffffffffffffffffffffffffff1673ffffffffffffffffffffffffffffffffffffffff16815260200190815260200160002060009054906101000a900460ff16905092915050565b60606001805461118190614b5f565b80601f01602080910402602001604051908101604052809291908181526020018280546111ad90614b5f565b80156111fa5780601f106111cf576101008083540402835291602001916111fa565b820191906000526020600020905b8154815290600101906020018083116111dd57829003601f168201915b5050505050905090565b6000801b61121181611d54565b61123b7f879d41736c42986c020ca99e1e88db6c24a0b4923eb26f2115159827a9ccb72e83610a9d565b5050565b6112707f879d41736c42986c020ca99e1e88db6c24a0b4923eb26f2115159827a9ccb72e61126b61194e565b610b63565b565b6000801b81565b61128b61128461194e565b83836120aa565b5050565b60006112bb7f879d41736c42986c020ca99e1e88db6c24a0b4923eb26f2115159827a9ccb72e83611107565b9050919050565b6112d36112cd61194e565b83611a0f565b611312576040517f08c379a00000000000000000000000000000000000000000000000000000000081526004016113099061471b565b60405180910390fd5b61131e84848484612217565b50505050565b606061132f82612286565b9050919050565b6000611353600960008481526020019081526020016000206123d8565b9050919050565b7f879d41736c42986c020ca99e1e88db6c24a0b4923eb26f2115159827a9ccb72e81565b61138782610a7d565b61139081611d54565b61139a8383611d9c565b505050565b7f3da911522173425ad77c4d334b95579cbb700456fef38bcc10dbcfbae688c2bc81565b6000600560008473ffffffffffffffffffffffffffffffffffffffff1673ffffffffffffffffffffffffffffffffffffffff16815260200190815260200160002060008373ffffffffffffffffffffffffffffffffffffffff1673ffffffffffffffffffffffffffffffffffffffff16815260200190815260200160002060009054906101000a900460ff16905092915050565b61145f61194e565b73ffffffffffffffffffffffffffffffffffffffff1661147d6110ae565b73ffffffffffffffffffffffffffffffffffffffff16146114d3576040517f08c379a00000000000000000000000000000000000000000000000000000000081526004016114ca9061473b565b60405180910390fd5b600073ffffffffffffffffffffffffffffffffffffffff168173ffffffffffffffffffffffffffffffffffffffff161415611543576040517f08c379a000000000000000000000000000000000000000000000000000000000815260040161153a9061457b565b60405180910390fd5b61154c81611f27565b50565b6115598282611107565b61162c5760016008600084815260200190815260200160002060000160008373ffffffffffffffffffffffffffffffffffffffff1673ffffffffffffffffffffffffffffffffffffffff16815260200190815260200160002060006101000a81548160ff0219169083151502179055506115d161194e565b73ffffffffffffffffffffffffffffffffffffffff168173ffffffffffffffffffffffffffffffffffffffff16837f2f8788117e7eff1d82e926ec794901d17c78024a50270940304540a733656f0d60405160405180910390a45b5050565b6000611658836000018373ffffffffffffffffffffffffffffffffffffffff1660001b6123ed565b905092915050565b60007f5a05180f000000000000000000000000000000000000000000000000000000007bffffffffffffffffffffffffffffffffffffffffffffffffffffffff1916827bffffffffffffffffffffffffffffffffffffffffffffffffffffffff191614806116d357506116d28261245d565b5b9050919050565b60007f42966c68000000000000000000000000000000000000000000000000000000007bffffffffffffffffffffffffffffffffffffffffffffffffffffffff1916827bffffffffffffffffffffffffffffffffffffffffffffffffffffffff1916148061174d575061174c826124d7565b5b9050919050565b60007ffac27f46000000000000000000000000000000000000000000000000000000007bffffffffffffffffffffffffffffffffffffffffffffffffffffffff1916827bffffffffffffffffffffffffffffffffffffffffffffffffffffffff191614806117c757506117c6826124d7565b5b806117d757506117d682611660565b5b9050919050565b60007f4d5507ff000000000000000000000000000000000000000000000000000000007bffffffffffffffffffffffffffffffffffffffffffffffffffffffff1916827bffffffffffffffffffffffffffffffffffffffffffffffffffffffff191614806118515750611850826124d7565b5b80611861575061186082611660565b5b9050919050565b60007f780e9d63000000000000000000000000000000000000000000000000000000007bffffffffffffffffffffffffffffffffffffffffffffffffffffffff1916827bffffffffffffffffffffffffffffffffffffffffffffffffffffffff191614806118db57506118da826124d7565b5b9050919050565b60008073ffffffffffffffffffffffffffffffffffffffff166002600084815260200190815260200160002060009054906101000a900473ffffffffffffffffffffffffffffffffffffffff1673ffffffffffffffffffffffffffffffffffffffff1614159050919050565b600033905090565b816004600083815260200190815260200160002060006101000a81548173ffffffffffffffffffffffffffffffffffffffff021916908373ffffffffffffffffffffffffffffffffffffffff160217905550808273ffffffffffffffffffffffffffffffffffffffff166119c983610ddb565b73ffffffffffffffffffffffffffffffffffffffff167f8c5be1e5ebec7d5bd14f71427d1e84f3dd0314c0f7b2291e5b200ac8c7c3b92560405160405180910390a45050565b6000611a1a826118e2565b611a59576040517f08c379a0000000000000000000000000000000000000000000000000000000008152600401611a509061485b565b60405180910390fd5b6000611a6483610ddb565b90508073ffffffffffffffffffffffffffffffffffffffff168473ffffffffffffffffffffffffffffffffffffffff161480611aa65750611aa581856113c3565b5b80611ae457508373ffffffffffffffffffffffffffffffffffffffff16611acc84610873565b73ffffffffffffffffffffffffffffffffffffffff16145b91505092915050565b8273ffffffffffffffffffffffffffffffffffffffff16611b0d82610ddb565b73ffffffffffffffffffffffffffffffffffffffff1614611b63576040517f08c379a0000000000000000000000000000000000000000000000000000000008152600401611b5a906145fb565b60405180910390fd5b600073ffffffffffffffffffffffffffffffffffffffff168273ffffffffffffffffffffffffffffffffffffffff161415611bd3576040517f08c379a0000000000000000000000000000000000000000000000000000000008152600401611bca906145bb565b60405180910390fd5b611bde8383836125b9565b611be9600082611956565b6001600360008573ffffffffffffffffffffffffffffffffffffffff1673ffffffffffffffffffffffffffffffffffffffff1681526020019081526020016000206000828254611c399190614a41565b925050819055506001600360008473ffffffffffffffffffffffffffffffffffffffff1673ffffffffffffffffffffffffffffffffffffffff1681526020019081526020016000206000828254611c909190614960565b92505081905550816002600083815260200190815260200160002060006101000a81548173ffffffffffffffffffffffffffffffffffffffff021916908373ffffffffffffffffffffffffffffffffffffffff160217905550808273ffffffffffffffffffffffffffffffffffffffff168473ffffffffffffffffffffffffffffffffffffffff167fddf252ad1be2c89b69c2b068fc378daa952ba7f163c4a11628f55a4df523b3ef60405160405180910390a4611d4f8383836125c9565b505050565b611d6581611d6061194e565b6125ce565b50565b611d72828261154f565b611d97816009600085815260200190815260200160002061163090919063ffffffff16565b505050565b611da6828261266b565b611dcb816009600085815260200190815260200160002061274d90919063ffffffff16565b505050565b611dd8610dcc565b611e17576040517f08c379a0000000000000000000000000000000000000000000000000000000008152600401611e0e9061453b565b60405180910390fd5b6000600760006101000a81548160ff0219169083151502179055507f5db9ee0a495bf2e6ff9c91a7834c1ba4fdd244a5e8aa4e537bd38aeae4b073aa611e5b61194e565b604051611e68919061443c565b60405180910390a1565b611e7b8161277d565b50565b611e988282604051806020016040528060008152506127d0565b5050565b611ea5826118e2565b611ee4576040517f08c379a0000000000000000000000000000000000000000000000000000000008152600401611edb9061451b565b60405180910390fd5b80600660008481526020019081526020016000209080519060200190611f0b92919061393e565b505050565b6000600760009054906101000a900460ff16905090565b6000600e60009054906101000a900473ffffffffffffffffffffffffffffffffffffffff16905081600e60006101000a81548173ffffffffffffffffffffffffffffffffffffffff021916908373ffffffffffffffffffffffffffffffffffffffff1602179055508173ffffffffffffffffffffffffffffffffffffffff168173ffffffffffffffffffffffffffffffffffffffff167f8be0079c531659141344cd1fd0a4f28419497f9722a3daafe3b4186f6b6457e060405160405180910390a35050565b611ff5610dcc565b15612035576040517f08c379a000000000000000000000000000000000000000000000000000000000815260040161202c9061463b565b60405180910390fd5b6001600760006101000a81548160ff0219169083151502179055507f62e78cea01bee320cd4e420270b5ea74000d11b0c9f74754ebdbfc544b05a25861207961194e565b604051612086919061443c565b60405180910390a1565b600061209f836000018361283f565b60001c905092915050565b8173ffffffffffffffffffffffffffffffffffffffff168373ffffffffffffffffffffffffffffffffffffffff161415612119576040517f08c379a0000000000000000000000000000000000000000000000000000000008152600401612110906146fb565b60405180910390fd5b80600560008573ffffffffffffffffffffffffffffffffffffffff1673ffffffffffffffffffffffffffffffffffffffff16815260200190815260200160002060008473ffffffffffffffffffffffffffffffffffffffff1673ffffffffffffffffffffffffffffffffffffffff16815260200190815260200160002060006101000a81548160ff0219169083151502179055508173ffffffffffffffffffffffffffffffffffffffff168373ffffffffffffffffffffffffffffffffffffffff167f17307eab39ab6107e8899845ad3d59bd9653f200f220920489ca2b5937696c318360405161220a91906144a3565b60405180910390a3505050565b612222848484611aed565b61222e8484848461286a565b806122415750612240848484846129d0565b5b612280576040517f08c379a0000000000000000000000000000000000000000000000000000000008152600401612277906146db565b60405180910390fd5b50505050565b6060612291826118e2565b6122d0576040517f08c379a00000000000000000000000000000000000000000000000000000000081526004016122c79061469b565b60405180910390fd5b60006006600084815260200190815260200160002080546122f090614b5f565b80601f016020809104026020016040519081016040528092919081815260200182805461231c90614b5f565b80156123695780601f1061233e57610100808354040283529160200191612369565b820191906000526020600020905b81548152906001019060200180831161234c57829003601f168201915b50505050509050600061237a612b36565b90506000815114156123905781925050506123d3565b6000825111156123c55780826040516020016123ad9291906143de565b604051602081830303815290604052925050506123d3565b6123ce84612b4d565b925050505b919050565b60006123e682600001612bf4565b9050919050565b60006123f98383612c05565b612452578260000182908060018154018082558091505060019003906000526020600020016000909190919091505582600001805490508360010160008481526020019081526020016000208190555060019050612457565b600090505b92915050565b60007f7965db0b000000000000000000000000000000000000000000000000000000007bffffffffffffffffffffffffffffffffffffffffffffffffffffffff1916827bffffffffffffffffffffffffffffffffffffffffffffffffffffffff191614806124d057506124cf82612c28565b5b9050919050565b60007f80ac58cd000000000000000000000000000000000000000000000000000000007bffffffffffffffffffffffffffffffffffffffffffffffffffffffff1916827bffffffffffffffffffffffffffffffffffffffffffffffffffffffff191614806125a257507f5b5e139f000000000000000000000000000000000000000000000000000000007bffffffffffffffffffffffffffffffffffffffffffffffffffffffff1916827bffffffffffffffffffffffffffffffffffffffffffffffffffffffff1916145b806125b257506125b182612c92565b5b9050919050565b6125c4838383612cfc565b505050565b505050565b6125d88282611107565b612667576125fd8173ffffffffffffffffffffffffffffffffffffffff166014612e10565b61260b8360001c6020612e10565b60405160200161261c929190614402565b6040516020818303038152906040526040517f08c379a000000000000000000000000000000000000000000000000000000000815260040161265e91906144d9565b60405180910390fd5b5050565b6126758282611107565b156127495760006008600084815260200190815260200160002060000160008373ffffffffffffffffffffffffffffffffffffffff1673ffffffffffffffffffffffffffffffffffffffff16815260200190815260200160002060006101000a81548160ff0219169083151502179055506126ee61194e565b73ffffffffffffffffffffffffffffffffffffffff168173ffffffffffffffffffffffffffffffffffffffff16837ff6391f5c32d9c69d2a47ea670b442974b53935d1edc7fd64eb21e047a839171b60405160405180910390a45b5050565b6000612775836000018373ffffffffffffffffffffffffffffffffffffffff1660001b61304c565b905092915050565b61278681613160565b60006006600083815260200190815260200160002080546127a690614b5f565b9050146127cd576006600082815260200190815260200160002060006127cc91906139c4565b5b50565b6127da838361327d565b6127e7600084848461286a565b806127fb57506127fa60008484846129d0565b5b61283a576040517f08c379a0000000000000000000000000000000000000000000000000000000008152600401612831906146db565b60405180910390fd5b505050565b600082600001828154811061285757612856614cf8565b5b9060005260206000200154905092915050565b600061288b8473ffffffffffffffffffffffffffffffffffffffff16613457565b156129c3578373ffffffffffffffffffffffffffffffffffffffff16636745782b6128b461194e565b8786866040518563ffffffff1660e01b81526004016128d69493929190614457565b602060405180830381600087803b1580156128f057600080fd5b505af192505050801561292157506040513d601f19601f8201168201806040525081019061291e9190613e8b565b60015b612973573d8060008114612951576040519150601f19603f3d011682016040523d82523d6000602084013e612956565b606091505b5060008151141561296b5760009150506129c8565b805181602001fd5b636745782b60e01b7bffffffffffffffffffffffffffffffffffffffffffffffffffffffff1916817bffffffffffffffffffffffffffffffffffffffffffffffffffffffff1916149150506129c8565b600190505b949350505050565b60006129f18473ffffffffffffffffffffffffffffffffffffffff16613457565b15612b29578373ffffffffffffffffffffffffffffffffffffffff1663150b7a02612a1a61194e565b8786866040518563ffffffff1660e01b8152600401612a3c9493929190614457565b602060405180830381600087803b158015612a5657600080fd5b505af1925050508015612a8757506040513d601f19601f82011682018060405250810190612a849190613e8b565b60015b612ad9573d8060008114612ab7576040519150601f19603f3d011682016040523d82523d6000602084013e612abc565b606091505b50600081511415612ad1576000915050612b2e565b805181602001fd5b63150b7a0260e01b7bffffffffffffffffffffffffffffffffffffffffffffffffffffffff1916817bffffffffffffffffffffffffffffffffffffffffffffffffffffffff191614915050612b2e565b600190505b949350505050565b606060405180602001604052806000815250905090565b6060612b58826118e2565b612b97576040517f08c379a0000000000000000000000000000000000000000000000000000000008152600401612b8e9061455b565b60405180910390fd5b6000612ba1612b36565b90506000815111612bc15760405180602001604052806000815250612bec565b80612bcb8461347a565b604051602001612bdc9291906143de565b6040516020818303038152906040525b915050919050565b600081600001805490509050919050565b600080836001016000848152602001908152602001600020541415905092915050565b60007f01ffc9a7000000000000000000000000000000000000000000000000000000007bffffffffffffffffffffffffffffffffffffffffffffffffffffffff1916827bffffffffffffffffffffffffffffffffffffffffffffffffffffffff1916149050919050565b60007f01ffc9a7000000000000000000000000000000000000000000000000000000007bffffffffffffffffffffffffffffffffffffffffffffffffffffffff1916827bffffffffffffffffffffffffffffffffffffffffffffffffffffffff1916149050919050565b612d078383836135db565b600073ffffffffffffffffffffffffffffffffffffffff168373ffffffffffffffffffffffffffffffffffffffff161415612d4a57612d4581613633565b612d89565b8173ffffffffffffffffffffffffffffffffffffffff168373ffffffffffffffffffffffffffffffffffffffff1614612d8857612d87838261367c565b5b5b600073ffffffffffffffffffffffffffffffffffffffff168273ffffffffffffffffffffffffffffffffffffffff161415612dcc57612dc7816137e9565b612e0b565b8273ffffffffffffffffffffffffffffffffffffffff168273ffffffffffffffffffffffffffffffffffffffff1614612e0a57612e0982826138ba565b5b5b505050565b606060006002836002612e2391906149e7565b612e2d9190614960565b67ffffffffffffffff811115612e4657612e45614d27565b5b6040519080825280601f01601f191660200182016040528015612e785781602001600182028036833780820191505090505b5090507f300000000000000000000000000000000000000000000000000000000000000081600081518110612eb057612eaf614cf8565b5b60200101907effffffffffffffffffffffffffffffffffffffffffffffffffffffffffffff1916908160001a9053507f780000000000000000000000000000000000000000000000000000000000000081600181518110612f1457612f13614cf8565b5b60200101907effffffffffffffffffffffffffffffffffffffffffffffffffffffffffffff1916908160001a90535060006001846002612f5491906149e7565b612f5e9190614960565b90505b6001811115612ffe577f3031323334353637383961626364656600000000000000000000000000000000600f861660108110612fa057612f9f614cf8565b5b1a60f81b828281518110612fb757612fb6614cf8565b5b60200101907effffffffffffffffffffffffffffffffffffffffffffffffffffffffffffff1916908160001a905350600485901c945080612ff790614b35565b9050612f61565b5060008414613042576040517f08c379a0000000000000000000000000000000000000000000000000000000008152600401613039906144fb565b60405180910390fd5b8091505092915050565b6000808360010160008481526020019081526020016000205490506000811461315457600060018261307e9190614a41565b90506000600186600001805490506130969190614a41565b90508181146131055760008660000182815481106130b7576130b6614cf8565b5b90600052602060002001549050808760000184815481106130db576130da614cf8565b5b90600052602060002001819055508387600101600083815260200190815260200160002081905550505b8560000180548061311957613118614cc9565b5b60019003818190600052602060002001600090559055856001016000868152602001908152602001600020600090556001935050505061315a565b60009150505b92915050565b600061316b82610ddb565b9050613179816000846125b9565b613184600083611956565b6001600360008373ffffffffffffffffffffffffffffffffffffffff1673ffffffffffffffffffffffffffffffffffffffff16815260200190815260200160002060008282546131d49190614a41565b925050819055506002600083815260200190815260200160002060006101000a81549073ffffffffffffffffffffffffffffffffffffffff021916905581600073ffffffffffffffffffffffffffffffffffffffff168273ffffffffffffffffffffffffffffffffffffffff167fddf252ad1be2c89b69c2b068fc378daa952ba7f163c4a11628f55a4df523b3ef60405160405180910390a4613279816000846125c9565b5050565b600073ffffffffffffffffffffffffffffffffffffffff168273ffffffffffffffffffffffffffffffffffffffff1614156132ed576040517f08c379a00000000000000000000000000000000000000000000000000000000081526004016132e49061461b565b60405180910390fd5b6132f6816118e2565b15613336576040517f08c379a000000000000000000000000000000000000000000000000000000000815260040161332d906147fb565b60405180910390fd5b613342600083836125b9565b6001600360008473ffffffffffffffffffffffffffffffffffffffff1673ffffffffffffffffffffffffffffffffffffffff16815260200190815260200160002060008282546133929190614960565b92505081905550816002600083815260200190815260200160002060006101000a81548173ffffffffffffffffffffffffffffffffffffffff021916908373ffffffffffffffffffffffffffffffffffffffff160217905550808273ffffffffffffffffffffffffffffffffffffffff16600073ffffffffffffffffffffffffffffffffffffffff167fddf252ad1be2c89b69c2b068fc378daa952ba7f163c4a11628f55a4df523b3ef60405160405180910390a4613453600083836125c9565b5050565b6000808273ffffffffffffffffffffffffffffffffffffffff163b119050919050565b606060008214156134c2576040518060400160405280600181526020017f300000000000000000000000000000000000000000000000000000000000000081525090506135d6565b600082905060005b600082146134f45780806134dd90614bc2565b915050600a826134ed91906149b6565b91506134ca565b60008167ffffffffffffffff8111156135105761350f614d27565b5b6040519080825280601f01601f1916602001820160405280156135425781602001600182028036833780820191505090505b5090505b600085146135cf5760018261355b9190614a41565b9150600a8561356a9190614c0b565b60306135769190614960565b60f81b81838151811061358c5761358b614cf8565b5b60200101907effffffffffffffffffffffffffffffffffffffffffffffffffffffffffffff1916908160001a905350600a856135c891906149b6565b9450613546565b8093505050505b919050565b6135e6838383613939565b6135ee610dcc565b1561362e576040517f08c379a00000000000000000000000000000000000000000000000000000000081526004016136259061467b565b60405180910390fd5b505050565b600c80549050600d600083815260200190815260200160002081905550600c81908060018154018082558091505060019003906000526020600020016000909190919091505550565b6000600161368984610eb9565b6136939190614a41565b90506000600b6000848152602001908152602001600020549050818114613778576000600a60008673ffffffffffffffffffffffffffffffffffffffff1673ffffffffffffffffffffffffffffffffffffffff168152602001908152602001600020600084815260200190815260200160002054905080600a60008773ffffffffffffffffffffffffffffffffffffffff1673ffffffffffffffffffffffffffffffffffffffff16815260200190815260200160002060008481526020019081526020016000208190555081600b600083815260200190815260200160002081905550505b600b600084815260200190815260200160002060009055600a60008573ffffffffffffffffffffffffffffffffffffffff1673ffffffffffffffffffffffffffffffffffffffff16815260200190815260200160002060008381526020019081526020016000206000905550505050565b60006001600c805490506137fd9190614a41565b90506000600d60008481526020019081526020016000205490506000600c838154811061382d5761382c614cf8565b5b9060005260206000200154905080600c838154811061384f5761384e614cf8565b5b906000526020600020018190555081600d600083815260200190815260200160002081905550600d600085815260200190815260200160002060009055600c80548061389e5761389d614cc9565b5b6001900381819060005260206000200160009055905550505050565b60006138c583610eb9565b905081600a60008573ffffffffffffffffffffffffffffffffffffffff1673ffffffffffffffffffffffffffffffffffffffff16815260200190815260200160002060008381526020019081526020016000208190555080600b600084815260200190815260200160002081905550505050565b505050565b82805461394a90614b5f565b90600052602060002090601f01602090048101928261396c57600085556139b3565b82601f1061398557805160ff19168380011785556139b3565b828001600101855582156139b3579182015b828111156139b2578251825591602001919060010190613997565b5b5090506139c09190613a04565b5090565b5080546139d090614b5f565b6000825580601f106139e25750613a01565b601f016020900490600052602060002090810190613a009190613a04565b5b50565b5b80821115613a1d576000816000905550600101613a05565b5090565b6000613a34613a2f846148bb565b614896565b905082815260208101848484011115613a5057613a4f614d5b565b5b613a5b848285614af3565b509392505050565b6000613a76613a71846148ec565b614896565b905082815260208101848484011115613a9257613a91614d5b565b5b613a9d848285614af3565b509392505050565b600081359050613ab481615567565b92915050565b600081359050613ac98161557e565b92915050565b600081359050613ade81615595565b92915050565b600081359050613af3816155ac565b92915050565b600081519050613b08816155ac565b92915050565b600082601f830112613b2357613b22614d56565b5b8135613b33848260208601613a21565b91505092915050565b600082601f830112613b5157613b50614d56565b5b8135613b61848260208601613a63565b91505092915050565b600081359050613b79816155c3565b92915050565b600060208284031215613b9557613b94614d65565b5b6000613ba384828501613aa5565b91505092915050565b60008060408385031215613bc357613bc2614d65565b5b6000613bd185828601613aa5565b9250506020613be285828601613aa5565b9150509250929050565b600080600060608486031215613c0557613c04614d65565b5b6000613c1386828701613aa5565b9350506020613c2486828701613aa5565b9250506040613c3586828701613b6a565b9150509250925092565b60008060008060808587031215613c5957613c58614d65565b5b6000613c6787828801613aa5565b9450506020613c7887828801613aa5565b9350506040613c8987828801613b6a565b925050606085013567ffffffffffffffff811115613caa57613ca9614d60565b5b613cb687828801613b0e565b91505092959194509250565b60008060408385031215613cd957613cd8614d65565b5b6000613ce785828601613aa5565b9250506020613cf885828601613aba565b9150509250929050565b60008060408385031215613d1957613d18614d65565b5b6000613d2785828601613aa5565b9250506020613d3885828601613b6a565b9150509250929050565b600080600060608486031215613d5b57613d5a614d65565b5b6000613d6986828701613aa5565b9350506020613d7a86828701613b6a565b925050604084013567ffffffffffffffff811115613d9b57613d9a614d60565b5b613da786828701613b3c565b9150509250925092565b600060208284031215613dc757613dc6614d65565b5b6000613dd584828501613acf565b91505092915050565b60008060408385031215613df557613df4614d65565b5b6000613e0385828601613acf565b9250506020613e1485828601613aa5565b9150509250929050565b60008060408385031215613e3557613e34614d65565b5b6000613e4385828601613acf565b9250506020613e5485828601613b6a565b9150509250929050565b600060208284031215613e7457613e73614d65565b5b6000613e8284828501613ae4565b91505092915050565b600060208284031215613ea157613ea0614d65565b5b6000613eaf84828501613af9565b91505092915050565b600060208284031215613ece57613ecd614d65565b5b6000613edc84828501613b6a565b91505092915050565b613eee81614a75565b82525050565b613efd81614a87565b82525050565b613f0c81614a93565b82525050565b6000613f1d8261491d565b613f278185614933565b9350613f37818560208601614b02565b613f4081614d6a565b840191505092915050565b6000613f5682614928565b613f608185614944565b9350613f70818560208601614b02565b613f7981614d6a565b840191505092915050565b6000613f8f82614928565b613f998185614955565b9350613fa9818560208601614b02565b80840191505092915050565b6000613fc2602083614944565b9150613fcd82614d7b565b602082019050919050565b6000613fe5602d83614944565b9150613ff082614da4565b604082019050919050565b6000614008601483614944565b915061401382614df3565b602082019050919050565b600061402b602e83614944565b915061403682614e1c565b604082019050919050565b600061404e602683614944565b915061405982614e6b565b604082019050919050565b6000614071602f83614944565b915061407c82614eba565b604082019050919050565b6000614094602383614944565b915061409f82614f09565b604082019050919050565b60006140b7602083614944565b91506140c282614f58565b602082019050919050565b60006140da602483614944565b91506140e582614f81565b604082019050919050565b60006140fd601f83614944565b915061410882614fd0565b602082019050919050565b6000614120601083614944565b915061412b82614ff9565b602082019050919050565b6000614143602a83614944565b915061414e82615022565b604082019050919050565b6000614166602a83614944565b915061417182615071565b604082019050919050565b6000614189603083614944565b9150614194826150c0565b604082019050919050565b60006141ac602883614944565b91506141b78261510f565b604082019050919050565b60006141cf604183614944565b91506141da8261515e565b606082019050919050565b60006141f2601883614944565b91506141fd826151d3565b602082019050919050565b6000614215603083614944565b9150614220826151fc565b604082019050919050565b6000614238602083614944565b91506142438261524b565b602082019050919050565b600061425b602883614944565b915061426682615274565b604082019050919050565b600061427e602b83614944565b9150614289826152c3565b604082019050919050565b60006142a1601783614955565b91506142ac82615312565b601782019050919050565b60006142c4602b83614944565b91506142cf8261533b565b604082019050919050565b60006142e7603783614944565b91506142f28261538a565b604082019050919050565b600061430a603083614944565b9150614315826153d9565b604082019050919050565b600061432d601b83614944565b915061433882615428565b602082019050919050565b6000614350602d83614944565b915061435b82615451565b604082019050919050565b6000614373601183614955565b915061437e826154a0565b601182019050919050565b6000614396602f83614944565b91506143a1826154c9565b604082019050919050565b60006143b9602b83614944565b91506143c482615518565b604082019050919050565b6143d881614ae9565b82525050565b60006143ea8285613f84565b91506143f68284613f84565b91508190509392505050565b600061440d82614294565b91506144198285613f84565b915061442482614366565b91506144308284613f84565b91508190509392505050565b60006020820190506144516000830184613ee5565b92915050565b600060808201905061446c6000830187613ee5565b6144796020830186613ee5565b61448660408301856143cf565b81810360608301526144988184613f12565b905095945050505050565b60006020820190506144b86000830184613ef4565b92915050565b60006020820190506144d36000830184613f03565b92915050565b600060208201905081810360008301526144f38184613f4b565b905092915050565b6000602082019050818103600083015261451481613fb5565b9050919050565b6000602082019050818103600083015261453481613fd8565b9050919050565b6000602082019050818103600083015261455481613ffb565b9050919050565b600060208201905081810360008301526145748161401e565b9050919050565b6000602082019050818103600083015261459481614041565b9050919050565b600060208201905081810360008301526145b481614064565b9050919050565b600060208201905081810360008301526145d481614087565b9050919050565b600060208201905081810360008301526145f4816140aa565b9050919050565b60006020820190508181036000830152614614816140cd565b9050919050565b60006020820190508181036000830152614634816140f0565b9050919050565b6000602082019050818103600083015261465481614113565b9050919050565b6000602082019050818103600083015261467481614136565b9050919050565b6000602082019050818103600083015261469481614159565b9050919050565b600060208201905081810360008301526146b48161417c565b9050919050565b600060208201905081810360008301526146d48161419f565b9050919050565b600060208201905081810360008301526146f4816141c2565b9050919050565b60006020820190508181036000830152614714816141e5565b9050919050565b6000602082019050818103600083015261473481614208565b9050919050565b600060208201905081810360008301526147548161422b565b9050919050565b600060208201905081810360008301526147748161424e565b9050919050565b6000602082019050818103600083015261479481614271565b9050919050565b600060208201905081810360008301526147b4816142b7565b9050919050565b600060208201905081810360008301526147d4816142da565b9050919050565b600060208201905081810360008301526147f4816142fd565b9050919050565b6000602082019050818103600083015261481481614320565b9050919050565b6000602082019050818103600083015261483481614343565b9050919050565b6000602082019050818103600083015261485481614389565b9050919050565b60006020820190508181036000830152614874816143ac565b9050919050565b600060208201905061489060008301846143cf565b92915050565b60006148a06148b1565b90506148ac8282614b91565b919050565b6000604051905090565b600067ffffffffffffffff8211156148d6576148d5614d27565b5b6148df82614d6a565b9050602081019050919050565b600067ffffffffffffffff82111561490757614906614d27565b5b61491082614d6a565b9050602081019050919050565b600081519050919050565b600081519050919050565b600082825260208201905092915050565b600082825260208201905092915050565b600081905092915050565b600061496b82614ae9565b915061497683614ae9565b9250827fffffffffffffffffffffffffffffffffffffffffffffffffffffffffffffffff038211156149ab576149aa614c3c565b5b828201905092915050565b60006149c182614ae9565b91506149cc83614ae9565b9250826149dc576149db614c6b565b5b828204905092915050565b60006149f282614ae9565b91506149fd83614ae9565b9250817fffffffffffffffffffffffffffffffffffffffffffffffffffffffffffffffff0483118215151615614a3657614a35614c3c565b5b828202905092915050565b6000614a4c82614ae9565b9150614a5783614ae9565b925082821015614a6a57614a69614c3c565b5b828203905092915050565b6000614a8082614ac9565b9050919050565b60008115159050919050565b6000819050919050565b60007fffffffff0000000000000000000000000000000000000000000000000000000082169050919050565b600073ffffffffffffffffffffffffffffffffffffffff82169050919050565b6000819050919050565b82818337600083830152505050565b60005b83811015614b20578082015181840152602081019050614b05565b83811115614b2f576000848401525b50505050565b6000614b4082614ae9565b91506000821415614b5457614b53614c3c565b5b600182039050919050565b60006002820490506001821680614b7757607f821691505b60208210811415614b8b57614b8a614c9a565b5b50919050565b614b9a82614d6a565b810181811067ffffffffffffffff82111715614bb957614bb8614d27565b5b80604052505050565b6000614bcd82614ae9565b91507fffffffffffffffffffffffffffffffffffffffffffffffffffffffffffffffff821415614c0057614bff614c3c565b5b600182019050919050565b6000614c1682614ae9565b9150614c2183614ae9565b925082614c3157614c30614c6b565b5b828206905092915050565b7f4e487b7100000000000000000000000000000000000000000000000000000000600052601160045260246000fd5b7f4e487b7100000000000000000000000000000000000000000000000000000000600052601260045260246000fd5b7f4e487b7100000000000000000000000000000000000000000000000000000000600052602260045260246000fd5b7f4e487b7100000000000000000000000000000000000000000000000000000000600052603160045260246000fd5b7f4e487b7100000000000000000000000000000000000000000000000000000000600052603260045260246000fd5b7f4e487b7100000000000000000000000000000000000000000000000000000000600052604160045260246000fd5b600080fd5b600080fd5b600080fd5b600080fd5b6000601f19601f8301169050919050565b7f537472696e67733a20686578206c656e67746820696e73756666696369656e74600082015250565b7f4b4950313755524953746f726167653a2055524920736574206f66206e6f6e6560008201527f78697374656e7420746f6b656e00000000000000000000000000000000000000602082015250565b7f5061757361626c653a206e6f7420706175736564000000000000000000000000600082015250565b7f4b495031374d657461646174613a2055524920717565727920666f72206e6f6e60008201527f6578697374656e7420746f6b656e000000000000000000000000000000000000602082015250565b7f4f776e61626c653a206e6577206f776e657220697320746865207a65726f206160008201527f6464726573730000000000000000000000000000000000000000000000000000602082015250565b7f4b495031375061757361626c653a206d7573742068617665207061757365722060008201527f726f6c6520746f20756e70617573650000000000000000000000000000000000602082015250565b7f4b495031373a207472616e7366657220746f20746865207a65726f206164647260008201527f6573730000000000000000000000000000000000000000000000000000000000602082015250565b7f4b495031373a20617070726f76616c20746f2063757272656e74206f776e6572600082015250565b7f4b495031373a207472616e736665722066726f6d20696e636f7272656374206f60008201527f776e657200000000000000000000000000000000000000000000000000000000602082015250565b7f4b495031373a206d696e7420746f20746865207a65726f206164647265737300600082015250565b7f5061757361626c653a2070617573656400000000000000000000000000000000600082015250565b7f4b49503137456e756d657261626c653a206f776e657220696e646578206f757460008201527f206f6620626f756e647300000000000000000000000000000000000000000000602082015250565b7f4b495031375061757361626c653a20746f6b656e207472616e7366657220776860008201527f696c652070617573656400000000000000000000000000000000000000000000602082015250565b7f4b4950313755524953746f726167653a2055524920717565727920666f72206e60008201527f6f6e6578697374656e7420746f6b656e00000000000000000000000000000000602082015250565b7f4b495031373a206f776e657220717565727920666f72206e6f6e65786973746560008201527f6e7420746f6b656e000000000000000000000000000000000000000000000000602082015250565b7f4b495031373a207472616e7366657220746f206e6f6e20494b4950313752656360008201527f65697665722f49455243373231526563656976657220696d706c656d656e746560208201527f7200000000000000000000000000000000000000000000000000000000000000604082015250565b7f4b495031373a20617070726f766520746f2063616c6c65720000000000000000600082015250565b7f4b495031373a207472616e736665722063616c6c6572206973206e6f74206f7760008201527f6e6572206e6f7220617070726f76656400000000000000000000000000000000602082015250565b7f4f776e61626c653a2063616c6c6572206973206e6f7420746865206f776e6572600082015250565b7f4b495031373a2061646472657373207a65726f206973206e6f7420612076616c60008201527f6964206f776e6572000000000000000000000000000000000000000000000000602082015250565b7f4b49503137456e756d657261626c653a20676c6f62616c20696e646578206f7560008201527f74206f6620626f756e6473000000000000000000000000000000000000000000602082015250565b7f416363657373436f6e74726f6c3a206163636f756e7420000000000000000000600082015250565b7f4b495031373a20617070726f76656420717565727920666f72206e6f6e65786960008201527f7374656e7420746f6b656e000000000000000000000000000000000000000000602082015250565b7f4b495031373a20617070726f76652063616c6c6572206973206e6f74206f776e60008201527f6572206e6f7220617070726f76656420666f7220616c6c000000000000000000602082015250565b7f4552433732314275726e61626c653a2063616c6c6572206973206e6f74206f7760008201527f6e6572206e6f7220617070726f76656400000000000000000000000000000000602082015250565b7f4b495031373a20746f6b656e20616c7265616479206d696e7465640000000000600082015250565b7f4b495031375061757361626c653a206d7573742068617665207061757365722060008201527f726f6c6520746f20706175736500000000000000000000000000000000000000602082015250565b7f206973206d697373696e6720726f6c6520000000000000000000000000000000600082015250565b7f416363657373436f6e74726f6c3a2063616e206f6e6c792072656e6f756e636560008201527f20726f6c657320666f722073656c660000000000000000000000000000000000602082015250565b7f4b495031373a206f70657261746f7220717565727920666f72206e6f6e65786960008201527f7374656e7420746f6b656e000000000000000000000000000000000000000000602082015250565b61557081614a75565b811461557b57600080fd5b50565b61558781614a87565b811461559257600080fd5b50565b61559e81614a93565b81146155a957600080fd5b50565b6155b581614a9d565b81146155c057600080fd5b50565b6155cc81614ae9565b81146155d757600080fd5b5056fea26469706673582212202c09aff5c7235aa3d6af89b137fa9ac411079fc5fe1a582b26ab18e8bc685b5e64736f6c63430008070033",
  "linkReferences": {},
  "deployedLinkReferences": {}
}