{
  "_format": "hh-sol-artifact-1",
  "contractName": "nftTransfer",
  "sourceName": "contracts/nftTransfer.sol",
  "abi": [
    {
      "inputs": [
        {
          "internalType": "string",
          "name": "_baseTokenURI",
          "type": "string"
        },
        {
          "internalType": "address",
          "name": "_burnNFTContract",
          "type": "address"
        },
        {
          "internalType": "address",
          "name": "_createNFTContrarct",
          "type": "address"
        }
      ],
      "stateMutability": "nonpayable",
      "type": "constructor"
    },
    {
      "anonymous": false,
      "inputs": [
        {
          "indexed": true,
          "internalType": "address",
          "name": "previousOwner",
          "type": "address"
        },
        {
          "indexed": true,
          "internalType": "address",
          "name": "newOwner",
          "type": "address"
        }
      ],
      "name": "OwnershipTransferred",
      "type": "event"
    },
    {
      "anonymous": false,
      "inputs": [
        {
          "indexed": true,
          "internalType": "bytes32",
          "name": "role",
          "type": "bytes32"
        },
        {
          "indexed": true,
          "internalType": "bytes32",
          "name": "previousAdminRole",
          "type": "bytes32"
        },
        {
          "indexed": true,
          "internalType": "bytes32",
          "name": "newAdminRole",
          "type": "bytes32"
        }
      ],
      "name": "RoleAdminChanged",
      "type": "event"
    },
    {
      "anonymous": false,
      "inputs": [
        {
          "indexed": true,
          "internalType": "bytes32",
          "name": "role",
          "type": "bytes32"
        },
        {
          "indexed": true,
          "internalType": "address",
          "name": "account",
          "type": "address"
        },
        {
          "indexed": true,
          "internalType": "address",
          "name": "sender",
          "type": "address"
        }
      ],
      "name": "RoleGranted",
      "type": "event"
    },
    {
      "anonymous": false,
      "inputs": [
        {
          "indexed": true,
          "internalType": "bytes32",
          "name": "role",
          "type": "bytes32"
        },
        {
          "indexed": true,
          "internalType": "address",
          "name": "account",
          "type": "address"
        },
        {
          "indexed": true,
          "internalType": "address",
          "name": "sender",
          "type": "address"
        }
      ],
      "name": "RoleRevoked",
      "type": "event"
    },
    {
      "anonymous": false,
      "inputs": [
        {
          "indexed": false,
          "internalType": "uint256",
          "name": "_tokenNum",
          "type": "uint256"
        },
        {
          "indexed": false,
          "internalType": "uint256",
          "name": "_newtokenNum",
          "type": "uint256"
        },
        {
          "indexed": false,
          "internalType": "address",
          "name": "msgSender",
          "type": "address"
        }
      ],
      "name": "transferForNFT",
      "type": "event"
    },
    {
      "inputs": [],
      "name": "DEFAULT_ADMIN_ROLE",
      "outputs": [
        {
          "internalType": "bytes32",
          "name": "",
          "type": "bytes32"
        }
      ],
      "stateMutability": "view",
      "type": "function"
    },
    {
      "inputs": [
        {
          "internalType": "uint256",
          "name": "",
          "type": "uint256"
        }
      ],
      "name": "NFTInfos",
      "outputs": [
        {
          "internalType": "uint256",
          "name": "_tokenNum",
          "type": "uint256"
        },
        {
          "internalType": "uint256",
          "name": "_newtokenNum",
          "type": "uint256"
        },
        {
          "internalType": "address",
          "name": "_msgSender",
          "type": "address"
        },
        {
          "internalType": "uint256",
          "name": "_nonce",
          "type": "uint256"
        }
      ],
      "stateMutability": "view",
      "type": "function"
    },
    {
      "inputs": [
        {
          "internalType": "uint256[]",
          "name": "_tokenNum",
          "type": "uint256[]"
        }
      ],
      "name": "NFTReveal",
      "outputs": [],
      "stateMutability": "nonpayable",
      "type": "function"
    },
    {
      "inputs": [
        {
          "internalType": "bytes32",
          "name": "role",
          "type": "bytes32"
        }
      ],
      "name": "getRoleAdmin",
      "outputs": [
        {
          "internalType": "bytes32",
          "name": "",
          "type": "bytes32"
        }
      ],
      "stateMutability": "view",
      "type": "function"
    },
    {
      "inputs": [
        {
          "internalType": "bytes32",
          "name": "role",
          "type": "bytes32"
        },
        {
          "internalType": "uint256",
          "name": "index",
          "type": "uint256"
        }
      ],
      "name": "getRoleMember",
      "outputs": [
        {
          "internalType": "address",
          "name": "",
          "type": "address"
        }
      ],
      "stateMutability": "view",
      "type": "function"
    },
    {
      "inputs": [
        {
          "internalType": "bytes32",
          "name": "role",
          "type": "bytes32"
        }
      ],
      "name": "getRoleMemberCount",
      "outputs": [
        {
          "internalType": "uint256",
          "name": "",
          "type": "uint256"
        }
      ],
      "stateMutability": "view",
      "type": "function"
    },
    {
      "inputs": [
        {
          "internalType": "bytes32",
          "name": "role",
          "type": "bytes32"
        },
        {
          "internalType": "address",
          "name": "account",
          "type": "address"
        }
      ],
      "name": "grantRole",
      "outputs": [],
      "stateMutability": "nonpayable",
      "type": "function"
    },
    {
      "inputs": [
        {
          "internalType": "bytes32",
          "name": "role",
          "type": "bytes32"
        },
        {
          "internalType": "address",
          "name": "account",
          "type": "address"
        }
      ],
      "name": "hasRole",
      "outputs": [
        {
          "internalType": "bool",
          "name": "",
          "type": "bool"
        }
      ],
      "stateMutability": "view",
      "type": "function"
    },
    {
      "inputs": [
        {
          "internalType": "uint256",
          "name": "amount",
          "type": "uint256"
        }
      ],
      "name": "makeNFT",
      "outputs": [],
      "stateMutability": "nonpayable",
      "type": "function"
    },
    {
      "inputs": [],
      "name": "owner",
      "outputs": [
        {
          "internalType": "address",
          "name": "",
          "type": "address"
        }
      ],
      "stateMutability": "view",
      "type": "function"
    },
    {
      "inputs": [],
      "name": "renounceOwnership",
      "outputs": [],
      "stateMutability": "nonpayable",
      "type": "function"
    },
    {
      "inputs": [
        {
          "internalType": "bytes32",
          "name": "role",
          "type": "bytes32"
        },
        {
          "internalType": "address",
          "name": "account",
          "type": "address"
        }
      ],
      "name": "renounceRole",
      "outputs": [],
      "stateMutability": "nonpayable",
      "type": "function"
    },
    {
      "inputs": [
        {
          "internalType": "bytes32",
          "name": "role",
          "type": "bytes32"
        },
        {
          "internalType": "address",
          "name": "account",
          "type": "address"
        }
      ],
      "name": "revokeRole",
      "outputs": [],
      "stateMutability": "nonpayable",
      "type": "function"
    },
    {
      "inputs": [
        {
          "internalType": "bytes4",
          "name": "interfaceId",
          "type": "bytes4"
        }
      ],
      "name": "supportsInterface",
      "outputs": [
        {
          "internalType": "bool",
          "name": "",
          "type": "bool"
        }
      ],
      "stateMutability": "view",
      "type": "function"
    },
    {
      "inputs": [],
      "name": "tokenIdCounter",
      "outputs": [
        {
          "internalType": "uint256",
          "name": "_value",
          "type": "uint256"
        }
      ],
      "stateMutability": "view",
      "type": "function"
    },
    {
      "inputs": [
        {
          "internalType": "address",
          "name": "newOwner",
          "type": "address"
        }
      ],
      "name": "transferOwnership",
      "outputs": [],
      "stateMutability": "nonpayable",
      "type": "function"
    }
  ],
  "bytecode": "0x608060405260056008553480156200001657600080fd5b50604051620047bd380380620047bd83398181016040528101906200003c91906200061d565b6200005c620000506200016660201b60201c565b6200016e60201b60201c565b83600a60006101000a81548173ffffffffffffffffffffffffffffffffffffffff021916908373ffffffffffffffffffffffffffffffffffffffff16021790555082600b60006101000a81548173ffffffffffffffffffffffffffffffffffffffff021916908373ffffffffffffffffffffffffffffffffffffffff16021790555081600c60006101000a81548173ffffffffffffffffffffffffffffffffffffffff021916908373ffffffffffffffffffffffffffffffffffffffff160217905550806009908051906020019062000137929190620004c1565b506200015c6000801b620001506200016660201b60201c565b6200023260201b60201c565b50505050620008ae565b600033905090565b60008060009054906101000a900473ffffffffffffffffffffffffffffffffffffffff169050816000806101000a81548173ffffffffffffffffffffffffffffffffffffffff021916908373ffffffffffffffffffffffffffffffffffffffff1602179055508173ffffffffffffffffffffffffffffffffffffffff168173ffffffffffffffffffffffffffffffffffffffff167f8be0079c531659141344cd1fd0a4f28419497f9722a3daafe3b4186f6b6457e060405160405180910390a35050565b6200024482826200024860201b60201c565b5050565b6200025f82826200029060201b62001d681760201c565b6200028b81600260008581526020019081526020016000206200038160201b62001e481790919060201c565b505050565b620002a28282620003b960201b60201c565b6200037d57600180600084815260200190815260200160002060000160008373ffffffffffffffffffffffffffffffffffffffff1673ffffffffffffffffffffffffffffffffffffffff16815260200190815260200160002060006101000a81548160ff021916908315150217905550620003226200016660201b60201c565b73ffffffffffffffffffffffffffffffffffffffff168173ffffffffffffffffffffffffffffffffffffffff16837f2f8788117e7eff1d82e926ec794901d17c78024a50270940304540a733656f0d60405160405180910390a45b5050565b6000620003b1836000018373ffffffffffffffffffffffffffffffffffffffff1660001b6200042460201b60201c565b905092915050565b60006001600084815260200190815260200160002060000160008373ffffffffffffffffffffffffffffffffffffffff1673ffffffffffffffffffffffffffffffffffffffff16815260200190815260200160002060009054906101000a900460ff16905092915050565b60006200043883836200049e60201b60201c565b6200049357826000018290806001815401808255809150506001900390600052602060002001600090919091909150558260000180549050836001016000848152602001908152602001600020819055506001905062000498565b600090505b92915050565b600080836001016000848152602001908152602001600020541415905092915050565b828054620004cf906200078b565b90600052602060002090601f016020900481019282620004f357600085556200053f565b82601f106200050e57805160ff19168380011785556200053f565b828001600101855582156200053f579182015b828111156200053e57825182559160200191906001019062000521565b5b5090506200054e919062000552565b5090565b5b808211156200056d57600081600090555060010162000553565b5090565b6000620005886200058284620006d7565b620006ae565b905082815260208101848484011115620005a757620005a66200085a565b5b620005b484828562000755565b509392505050565b600081519050620005cd816200087a565b92915050565b600081519050620005e48162000894565b92915050565b600082601f83011262000602576200060162000855565b5b81516200061484826020860162000571565b91505092915050565b600080600080608085870312156200063a576200063962000864565b5b60006200064a87828801620005d3565b94505060206200065d87828801620005bc565b93505060406200067087828801620005bc565b925050606085015167ffffffffffffffff8111156200069457620006936200085f565b5b620006a287828801620005ea565b91505092959194509250565b6000620006ba620006cd565b9050620006c88282620007c1565b919050565b6000604051905090565b600067ffffffffffffffff821115620006f557620006f462000826565b5b620007008262000869565b9050602081019050919050565b60006200071a8262000735565b9050919050565b60006200072e8262000735565b9050919050565b600073ffffffffffffffffffffffffffffffffffffffff82169050919050565b60005b838110156200077557808201518184015260208101905062000758565b8381111562000785576000848401525b50505050565b60006002820490506001821680620007a457607f821691505b60208210811415620007bb57620007ba620007f7565b5b50919050565b620007cc8262000869565b810181811067ffffffffffffffff82111715620007ee57620007ed62000826565b5b80604052505050565b7f4e487b7100000000000000000000000000000000000000000000000000000000600052602260045260246000fd5b7f4e487b7100000000000000000000000000000000000000000000000000000000600052604160045260246000fd5b600080fd5b600080fd5b600080fd5b600080fd5b6000601f19601f8301169050919050565b62000885816200070d565b81146200089157600080fd5b50565b6200089f8162000721565b8114620008ab57600080fd5b50565b613eff80620008be6000396000f3fe6080604052600436106101815760003560e01c8063715018a6116100d1578063a217fddf1161008a578063cc2ee19611610064578063cc2ee1961461055b578063d547741f1461058b578063f2fde38b146105b4578063fba24aae146105dd57610181565b8063a217fddf146104c8578063b6544bc0146104f3578063ca15c8731461051e57610181565b8063715018a6146103b85780638da5cb5b146103cf5780639010d07c146103fa57806391d148541461043757806398bdf6f51461047457806399177a041461049f57610181565b806338cc48311161013e57806346f89c451161011857806346f89c451461030657806347535d7b1461032257806364b3b8441461034d5780636517b2901461038f57610181565b806338cc4831146102995780633be08dab146102c657806343d726d6146102ef57610181565b806301ffc9a714610186578063248a9ca3146101c35780632e849894146102005780632f2ff15d1461022b5780632f96bd691461025457806336568abe14610270575b600080fd5b34801561019257600080fd5b506101ad60048036038101906101a89190612b26565b610606565b6040516101ba9190613196565b60405180910390f35b3480156101cf57600080fd5b506101ea60048036038101906101e59190612a79565b610680565b6040516101f79190613219565b60405180910390f35b34801561020c57600080fd5b506102156106a0565b60405161022291906134a8565b60405180910390f35b34801561023757600080fd5b50610252600480360381019061024d9190612aa6565b6106a6565b005b61026e60048036038101906102699190612c1c565b6106c7565b005b34801561027c57600080fd5b5061029760048036038101906102929190612aa6565b610dad565b005b3480156102a557600080fd5b506102ae610e30565b6040516102bd93929190613234565b60405180910390f35b3480156102d257600080fd5b506102ed60048036038101906102e891906129f9565b610eb7565b005b3480156102fb57600080fd5b50610304610f8d565b005b610320600480360381019061031b9190612c1c565b610fb8565b005b34801561032e57600080fd5b506103376117df565b6040516103449190613196565b60405180910390f35b34801561035957600080fd5b50610374600480360381019061036f9190612b53565b6117f2565b60405161038696959493929190613508565b60405180910390f35b34801561039b57600080fd5b506103b660048036038101906103b19190612c5c565b61189a565b005b3480156103c457600080fd5b506103cd611949565b005b3480156103db57600080fd5b506103e46119d1565b6040516103f1919061313d565b60405180910390f35b34801561040657600080fd5b50610421600480360381019061041c9190612ae6565b6119fa565b60405161042e919061313d565b60405180910390f35b34801561044357600080fd5b5061045e60048036038101906104599190612aa6565b611a29565b60405161046b9190613196565b60405180910390f35b34801561048057600080fd5b50610489611a94565b60405161049691906134a8565b60405180910390f35b3480156104ab57600080fd5b506104c660048036038101906104c19190612b80565b611aa0565b005b3480156104d457600080fd5b506104dd611afe565b6040516104ea9190613219565b60405180910390f35b3480156104ff57600080fd5b50610508611b05565b604051610515919061326b565b60405180910390f35b34801561052a57600080fd5b5061054560048036038101906105409190612a79565b611b18565b60405161055291906134a8565b60405180910390f35b34801561056757600080fd5b50610570611b3c565b604051610582969594939291906131b1565b60405180910390f35b34801561059757600080fd5b506105b260048036038101906105ad9190612aa6565b611c1f565b005b3480156105c057600080fd5b506105db60048036038101906105d691906129cc565b611c40565b005b3480156105e957600080fd5b5061060460048036038101906105ff9190612bc0565b611d38565b005b60007f5a05180f000000000000000000000000000000000000000000000000000000007bffffffffffffffffffffffffffffffffffffffffffffffffffffffff1916827bffffffffffffffffffffffffffffffffffffffffffffffffffffffff19161480610679575061067882611e78565b5b9050919050565b600060016000838152602001908152602001600020600101549050919050565b60055481565b6106af82610680565b6106b881611ef2565b6106c28383611f06565b505050565b8181600460009054906101000a900460ff161515600115151461071f576040517f08c379a0000000000000000000000000000000000000000000000000000000008152600401610716906133c8565b60405180910390fd5b6000821415610763576040517f08c379a000000000000000000000000000000000000000000000000000000000815260040161075a906133a8565b60405180910390fd5b60055482146107a7576040517f08c379a000000000000000000000000000000000000000000000000000000000815260040161079e90613428565b60405180910390fd5b600854600d60003373ffffffffffffffffffffffffffffffffffffffff1673ffffffffffffffffffffffffffffffffffffffff168152602001908152602001600020546107f491906135fb565b4311610835576040517f08c379a000000000000000000000000000000000000000000000000000000000815260040161082c90613308565b60405180910390fd5b43600d60003373ffffffffffffffffffffffffffffffffffffffff1673ffffffffffffffffffffffffffffffffffffffff168152602001908152602001600020819055506000600e60008481526020019081526020016000206040518060c001604052908160008201548152602001600182015481526020016002820154815260200160038201548152602001600482015481526020016005820154815250509050806000015143101561091e576040517f08c379a0000000000000000000000000000000000000000000000000000000008152600401610915906132a8565b60405180910390fd5b600082118015610932575080606001518211155b610971576040517f08c379a000000000000000000000000000000000000000000000000000000000815260040161096890613348565b60405180910390fd5b80602001516001836109836003611f3a565b61098d91906135fb565b61099791906136dc565b11156109d8576040517f08c379a00000000000000000000000000000000000000000000000000000000081526004016109cf90613368565b60405180910390fd5b806040015182600f600086815260200190815260200160002060003373ffffffffffffffffffffffffffffffffffffffff1673ffffffffffffffffffffffffffffffffffffffff16815260200190815260200160002054610a3991906135fb565b1115610a7a576040517f08c379a0000000000000000000000000000000000000000000000000000000008152600401610a7190613408565b60405180910390fd5b600180811115610a8d57610a8c6139b4565b5b600660009054906101000a900460ff166001811115610aaf57610aae6139b4565b5b14610aef576040517f08c379a0000000000000000000000000000000000000000000000000000000008152600401610ae690613448565b60405180910390fd5b6000600e60008781526020019081526020016000206040518060c0016040529081600082015481526020016001820154815260200160028201548152602001600382015481526020016004820154815260200160058201548152505090506000341415610b91576040517f08c379a0000000000000000000000000000000000000000000000000000000008152600401610b8890613328565b60405180910390fd5b848160800151610ba19190613682565b3414610be2576040517f08c379a0000000000000000000000000000000000000000000000000000000008152600401610bd990613388565b60405180910390fd5b600a60009054906101000a900473ffffffffffffffffffffffffffffffffffffffff1673ffffffffffffffffffffffffffffffffffffffff166108fc349081150290604051600060405180830381858888f19350505050158015610c4a573d6000803e3d6000fd5b5060005b85811015610d3d576000610c626003611f3a565b9050610c6e6003611f48565b600b60009054906101000a900473ffffffffffffffffffffffffffffffffffffffff1673ffffffffffffffffffffffffffffffffffffffff166350bb4e7f33836009610cb986611f5e565b604051602001610cca9291906130d4565b6040516020818303038152906040526040518463ffffffff1660e01b8152600401610cf793929190613158565b600060405180830381600087803b158015610d1157600080fd5b505af1158015610d25573d6000803e3d6000fd5b50505050508080610d35906138dc565b915050610c4e565b505081600f600085815260200190815260200160002060003373ffffffffffffffffffffffffffffffffffffffff1673ffffffffffffffffffffffffffffffffffffffff1681526020019081526020016000206000828254610d9f91906135fb565b925050819055505050505050565b610db56120bf565b73ffffffffffffffffffffffffffffffffffffffff168173ffffffffffffffffffffffffffffffffffffffff1614610e22576040517f08c379a0000000000000000000000000000000000000000000000000000000008152600401610e1990613488565b60405180910390fd5b610e2c82826120c7565b5050565b60008060008060001b610e4281611ef2565b600b60009054906101000a900473ffffffffffffffffffffffffffffffffffffffff16600c60009054906101000a900473ffffffffffffffffffffffffffffffffffffffff16600a60009054906101000a900473ffffffffffffffffffffffffffffffffffffffff1693509350935050909192565b6000801b610ec481611ef2565b83600b60006101000a81548173ffffffffffffffffffffffffffffffffffffffff021916908373ffffffffffffffffffffffffffffffffffffffff16021790555082600c60006101000a81548173ffffffffffffffffffffffffffffffffffffffff021916908373ffffffffffffffffffffffffffffffffffffffff16021790555081600a60006101000a81548173ffffffffffffffffffffffffffffffffffffffff021916908373ffffffffffffffffffffffffffffffffffffffff16021790555050505050565b6000801b610f9a81611ef2565b6000600460006101000a81548160ff02191690831515021790555050565b8181600460009054906101000a900460ff1615156001151514611010576040517f08c379a0000000000000000000000000000000000000000000000000000000008152600401611007906133c8565b60405180910390fd5b6000821415611054576040517f08c379a000000000000000000000000000000000000000000000000000000000815260040161104b906133a8565b60405180910390fd5b6005548214611098576040517f08c379a000000000000000000000000000000000000000000000000000000000815260040161108f90613428565b60405180910390fd5b600854600d60003373ffffffffffffffffffffffffffffffffffffffff1673ffffffffffffffffffffffffffffffffffffffff168152602001908152602001600020546110e591906135fb565b4311611126576040517f08c379a000000000000000000000000000000000000000000000000000000000815260040161111d90613308565b60405180910390fd5b43600d60003373ffffffffffffffffffffffffffffffffffffffff1673ffffffffffffffffffffffffffffffffffffffff168152602001908152602001600020819055506000600e60008481526020019081526020016000206040518060c001604052908160008201548152602001600182015481526020016002820154815260200160038201548152602001600482015481526020016005820154815250509050806000015143101561120f576040517f08c379a0000000000000000000000000000000000000000000000000000000008152600401611206906132a8565b60405180910390fd5b600082118015611223575080606001518211155b611262576040517f08c379a000000000000000000000000000000000000000000000000000000000815260040161125990613348565b60405180910390fd5b80602001516001836112746003611f3a565b61127e91906135fb565b61128891906136dc565b11156112c9576040517f08c379a00000000000000000000000000000000000000000000000000000000081526004016112c090613368565b60405180910390fd5b806040015182600f600086815260200190815260200160002060003373ffffffffffffffffffffffffffffffffffffffff1673ffffffffffffffffffffffffffffffffffffffff1681526020019081526020016000205461132a91906135fb565b111561136b576040517f08c379a000000000000000000000000000000000000000000000000000000000815260040161136290613408565b60405180910390fd5b6000600181111561137f5761137e6139b4565b5b600660009054906101000a900460ff1660018111156113a1576113a06139b4565b5b146113e1576040517f08c379a00000000000000000000000000000000000000000000000000000000081526004016113d890613448565b60405180910390fd5b6000600e60008781526020019081526020016000206040518060c001604052908160008201548152602001600182015481526020016002820154815260200160038201548152602001600482015481526020016005820154815250509050600c60009054906101000a900473ffffffffffffffffffffffffffffffffffffffff1673ffffffffffffffffffffffffffffffffffffffff16633ed1c6ca8733600f60008b815260200190815260200160002060003373ffffffffffffffffffffffffffffffffffffffff1673ffffffffffffffffffffffffffffffffffffffff16815260200190815260200160002054896040518563ffffffff1660e01b81526004016114f094939291906134c3565b60206040518083038186803b15801561150857600080fd5b505afa15801561151c573d6000803e3d6000fd5b505050506040513d601f19601f820116820180604052508101906115409190612a4c565b61157f576040517f08c379a000000000000000000000000000000000000000000000000000000000815260040161157690613468565b60405180910390fd5b60003414156115c3576040517f08c379a00000000000000000000000000000000000000000000000000000000081526004016115ba90613328565b60405180910390fd5b8481608001516115d39190613682565b3414611614576040517f08c379a000000000000000000000000000000000000000000000000000000000815260040161160b90613388565b60405180910390fd5b600a60009054906101000a900473ffffffffffffffffffffffffffffffffffffffff1673ffffffffffffffffffffffffffffffffffffffff166108fc349081150290604051600060405180830381858888f1935050505015801561167c573d6000803e3d6000fd5b5060005b8581101561176f5760006116946003611f3a565b90506116a06003611f48565b600b60009054906101000a900473ffffffffffffffffffffffffffffffffffffffff1673ffffffffffffffffffffffffffffffffffffffff166350bb4e7f338360096116eb86611f5e565b6040516020016116fc9291906130d4565b6040516020818303038152906040526040518463ffffffff1660e01b815260040161172993929190613158565b600060405180830381600087803b15801561174357600080fd5b505af1158015611757573d6000803e3d6000fd5b50505050508080611767906138dc565b915050611680565b505081600f600085815260200190815260200160002060003373ffffffffffffffffffffffffffffffffffffffff1673ffffffffffffffffffffffffffffffffffffffff16815260200190815260200160002060008282546117d191906135fb565b925050819055505050505050565b600460009054906101000a900460ff1681565b600080600080600080600e6000888152602001908152602001600020600001549550600e6000888152602001908152602001600020600101549450600e6000888152602001908152602001600020600201549350600e6000888152602001908152602001600020600301549250600e6000888152602001908152602001600020600401549150600e600088815260200190815260200160002060050154905091939550919395565b6000801b6118a781611ef2565b85600e60008981526020019081526020016000206000018190555084600e60008981526020019081526020016000206001018190555083600e60008981526020019081526020016000206002018190555082600e60008981526020019081526020016000206003018190555081600e60008981526020019081526020016000206004018190555060075487111561194057866007819055505b50505050505050565b6119516120bf565b73ffffffffffffffffffffffffffffffffffffffff1661196f6119d1565b73ffffffffffffffffffffffffffffffffffffffff16146119c5576040517f08c379a00000000000000000000000000000000000000000000000000000000081526004016119bc906133e8565b60405180910390fd5b6119cf60006120fb565b565b60008060009054906101000a900473ffffffffffffffffffffffffffffffffffffffff16905090565b6000611a2182600260008681526020019081526020016000206121bf90919063ffffffff16565b905092915050565b60006001600084815260200190815260200160002060000160008373ffffffffffffffffffffffffffffffffffffffff1673ffffffffffffffffffffffffffffffffffffffff16815260200190815260200160002060009054906101000a900460ff16905092915050565b60038060000154905081565b6000801b611aad81611ef2565b6001600460006101000a81548160ff0219169083151502179055508260058190555081600660006101000a81548160ff02191690836001811115611af457611af36139b4565b5b0217905550505050565b6000801b81565b600660009054906101000a900460ff1681565b6000611b35600260008481526020019081526020016000206121d9565b9050919050565b600080600080600060606000801b611b5381611ef2565b600460009054906101000a900460ff16600554600660009054906101000a900460ff166007546008546009808054611b8a90613879565b80601f0160208091040260200160405190810160405280929190818152602001828054611bb690613879565b8015611c035780601f10611bd857610100808354040283529160200191611c03565b820191906000526020600020905b815481529060010190602001808311611be657829003601f168201915b5050505050905096509650965096509650965050909192939495565b611c2882610680565b611c3181611ef2565b611c3b83836120c7565b505050565b611c486120bf565b73ffffffffffffffffffffffffffffffffffffffff16611c666119d1565b73ffffffffffffffffffffffffffffffffffffffff1614611cbc576040517f08c379a0000000000000000000000000000000000000000000000000000000008152600401611cb3906133e8565b60405180910390fd5b600073ffffffffffffffffffffffffffffffffffffffff168173ffffffffffffffffffffffffffffffffffffffff161415611d2c576040517f08c379a0000000000000000000000000000000000000000000000000000000008152600401611d23906132e8565b60405180910390fd5b611d35816120fb565b50565b6000801b611d4581611ef2565b826008819055508160099080519060200190611d62929190612826565b50505050565b611d728282611a29565b611e4457600180600084815260200190815260200160002060000160008373ffffffffffffffffffffffffffffffffffffffff1673ffffffffffffffffffffffffffffffffffffffff16815260200190815260200160002060006101000a81548160ff021916908315150217905550611de96120bf565b73ffffffffffffffffffffffffffffffffffffffff168173ffffffffffffffffffffffffffffffffffffffff16837f2f8788117e7eff1d82e926ec794901d17c78024a50270940304540a733656f0d60405160405180910390a45b5050565b6000611e70836000018373ffffffffffffffffffffffffffffffffffffffff1660001b6121ee565b905092915050565b60007f7965db0b000000000000000000000000000000000000000000000000000000007bffffffffffffffffffffffffffffffffffffffffffffffffffffffff1916827bffffffffffffffffffffffffffffffffffffffffffffffffffffffff19161480611eeb5750611eea8261225e565b5b9050919050565b611f0381611efe6120bf565b6122c8565b50565b611f108282611d68565b611f358160026000858152602001908152602001600020611e4890919063ffffffff16565b505050565b600081600001549050919050565b6001816000016000828254019250508190555050565b60606000821415611fa6576040518060400160405280600181526020017f300000000000000000000000000000000000000000000000000000000000000081525090506120ba565b600082905060005b60008214611fd8578080611fc1906138dc565b915050600a82611fd19190613651565b9150611fae565b60008167ffffffffffffffff811115611ff457611ff3613a70565b5b6040519080825280601f01601f1916602001820160405280156120265781602001600182028036833780820191505090505b5090505b600085146120b35760018261203f91906136dc565b9150600a8561204e9190613925565b603061205a91906135fb565b60f81b8183815181106120705761206f613a41565b5b60200101907effffffffffffffffffffffffffffffffffffffffffffffffffffffffffffff1916908160001a905350600a856120ac9190613651565b945061202a565b8093505050505b919050565b600033905090565b6120d18282612365565b6120f6816002600085815260200190815260200160002061244790919063ffffffff16565b505050565b60008060009054906101000a900473ffffffffffffffffffffffffffffffffffffffff169050816000806101000a81548173ffffffffffffffffffffffffffffffffffffffff021916908373ffffffffffffffffffffffffffffffffffffffff1602179055508173ffffffffffffffffffffffffffffffffffffffff168173ffffffffffffffffffffffffffffffffffffffff167f8be0079c531659141344cd1fd0a4f28419497f9722a3daafe3b4186f6b6457e060405160405180910390a35050565b60006121ce8360000183612477565b60001c905092915050565b60006121e7826000016124a2565b9050919050565b60006121fa83836124b3565b612253578260000182908060018154018082558091505060019003906000526020600020016000909190919091505582600001805490508360010160008481526020019081526020016000208190555060019050612258565b600090505b92915050565b60007f01ffc9a7000000000000000000000000000000000000000000000000000000007bffffffffffffffffffffffffffffffffffffffffffffffffffffffff1916827bffffffffffffffffffffffffffffffffffffffffffffffffffffffff1916149050919050565b6122d28282611a29565b612361576122f78173ffffffffffffffffffffffffffffffffffffffff1660146124d6565b6123058360001c60206124d6565b604051602001612316929190613103565b6040516020818303038152906040526040517f08c379a00000000000000000000000000000000000000000000000000000000081526004016123589190613286565b60405180910390fd5b5050565b61236f8282611a29565b156124435760006001600084815260200190815260200160002060000160008373ffffffffffffffffffffffffffffffffffffffff1673ffffffffffffffffffffffffffffffffffffffff16815260200190815260200160002060006101000a81548160ff0219169083151502179055506123e86120bf565b73ffffffffffffffffffffffffffffffffffffffff168173ffffffffffffffffffffffffffffffffffffffff16837ff6391f5c32d9c69d2a47ea670b442974b53935d1edc7fd64eb21e047a839171b60405160405180910390a45b5050565b600061246f836000018373ffffffffffffffffffffffffffffffffffffffff1660001b612712565b905092915050565b600082600001828154811061248f5761248e613a41565b5b9060005260206000200154905092915050565b600081600001805490509050919050565b600080836001016000848152602001908152602001600020541415905092915050565b6060600060028360026124e99190613682565b6124f391906135fb565b67ffffffffffffffff81111561250c5761250b613a70565b5b6040519080825280601f01601f19166020018201604052801561253e5781602001600182028036833780820191505090505b5090507f30000000000000000000000000000000000000000000000000000000000000008160008151811061257657612575613a41565b5b60200101907effffffffffffffffffffffffffffffffffffffffffffffffffffffffffffff1916908160001a9053507f7800000000000000000000000000000000000000000000000000000000000000816001815181106125da576125d9613a41565b5b60200101907effffffffffffffffffffffffffffffffffffffffffffffffffffffffffffff1916908160001a9053506000600184600261261a9190613682565b61262491906135fb565b90505b60018111156126c4577f3031323334353637383961626364656600000000000000000000000000000000600f86166010811061266657612665613a41565b5b1a60f81b82828151811061267d5761267c613a41565b5b60200101907effffffffffffffffffffffffffffffffffffffffffffffffffffffffffffff1916908160001a905350600485901c9450806126bd9061384f565b9050612627565b5060008414612708576040517f08c379a00000000000000000000000000000000000000000000000000000000081526004016126ff906132c8565b60405180910390fd5b8091505092915050565b6000808360010160008481526020019081526020016000205490506000811461281a57600060018261274491906136dc565b905060006001866000018054905061275c91906136dc565b90508181146127cb57600086600001828154811061277d5761277c613a41565b5b90600052602060002001549050808760000184815481106127a1576127a0613a41565b5b90600052602060002001819055508387600101600083815260200190815260200160002081905550505b856000018054806127df576127de613a12565b5b600190038181906000526020600020016000905590558560010160008681526020019081526020016000206000905560019350505050612820565b60009150505b92915050565b82805461283290613879565b90600052602060002090601f016020900481019282612854576000855561289b565b82601f1061286d57805160ff191683800117855561289b565b8280016001018555821561289b579182015b8281111561289a57825182559160200191906001019061287f565b5b5090506128a891906128ac565b5090565b5b808211156128c55760008160009055506001016128ad565b5090565b60006128dc6128d78461358e565b613569565b9050828152602081018484840111156128f8576128f7613aa4565b5b61290384828561380d565b509392505050565b60008135905061291a81613e2f565b92915050565b60008135905061292f81613e46565b92915050565b60008151905061294481613e5d565b92915050565b60008135905061295981613e74565b92915050565b60008135905061296e81613e8b565b92915050565b60008135905061298381613ea2565b92915050565b600082601f83011261299e5761299d613a9f565b5b81356129ae8482602086016128c9565b91505092915050565b6000813590506129c681613eb2565b92915050565b6000602082840312156129e2576129e1613aae565b5b60006129f08482850161290b565b91505092915050565b600080600060608486031215612a1257612a11613aae565b5b6000612a208682870161290b565b9350506020612a318682870161290b565b9250506040612a4286828701612920565b9150509250925092565b600060208284031215612a6257612a61613aae565b5b6000612a7084828501612935565b91505092915050565b600060208284031215612a8f57612a8e613aae565b5b6000612a9d8482850161294a565b91505092915050565b60008060408385031215612abd57612abc613aae565b5b6000612acb8582860161294a565b9250506020612adc8582860161290b565b9150509250929050565b60008060408385031215612afd57612afc613aae565b5b6000612b0b8582860161294a565b9250506020612b1c858286016129b7565b9150509250929050565b600060208284031215612b3c57612b3b613aae565b5b6000612b4a8482850161295f565b91505092915050565b600060208284031215612b6957612b68613aae565b5b6000612b77848285016129b7565b91505092915050565b60008060408385031215612b9757612b96613aae565b5b6000612ba5858286016129b7565b9250506020612bb685828601612974565b9150509250929050565b60008060408385031215612bd757612bd6613aae565b5b6000612be5858286016129b7565b925050602083013567ffffffffffffffff811115612c0657612c05613aa9565b5b612c1285828601612989565b9150509250929050565b60008060408385031215612c3357612c32613aae565b5b6000612c41858286016129b7565b9250506020612c52858286016129b7565b9150509250929050565b60008060008060008060c08789031215612c7957612c78613aae565b5b6000612c8789828a016129b7565b9650506020612c9889828a016129b7565b9550506040612ca989828a016129b7565b9450506060612cba89828a016129b7565b9350506080612ccb89828a016129b7565b92505060a0612cdc89828a016129b7565b9150509295509295509295565b612cf281613710565b82525050565b612d0181613734565b82525050565b612d1081613740565b82525050565b612d1f816137b3565b82525050565b612d2e816137c5565b82525050565b612d3d816137d7565b82525050565b6000612d4e826135d4565b612d5881856135df565b9350612d6881856020860161381c565b612d7181613ab3565b840191505092915050565b6000612d87826135d4565b612d9181856135f0565b9350612da181856020860161381c565b80840191505092915050565b60008154612dba81613879565b612dc481866135f0565b94506001821660008114612ddf5760018114612df057612e23565b60ff19831686528186019350612e23565b612df9856135bf565b60005b83811015612e1b57815481890152600182019150602081019050612dfc565b838801955050505b50505092915050565b6000612e39600e836135df565b9150612e4482613ac4565b602082019050919050565b6000612e5c6020836135df565b9150612e6782613aed565b602082019050919050565b6000612e7f6026836135df565b9150612e8a82613b16565b604082019050919050565b6000612ea2601f836135df565b9150612ead82613b65565b602082019050919050565b6000612ec56012836135df565b9150612ed082613b8e565b602082019050919050565b6000612ee8600e836135df565b9150612ef382613bb7565b602082019050919050565b6000612f0b6008836135df565b9150612f1682613be0565b602082019050919050565b6000612f2e600f836135df565b9150612f3982613c09565b602082019050919050565b6000612f51600c836135df565b9150612f5c82613c32565b602082019050919050565b6000612f74600d836135df565b9150612f7f82613c5b565b602082019050919050565b6000612f976005836135f0565b9150612fa282613c84565b600582019050919050565b6000612fba6020836135df565b9150612fc582613cad565b602082019050919050565b6000612fdd600e836135df565b9150612fe882613cd6565b602082019050919050565b60006130006010836135df565b915061300b82613cff565b602082019050919050565b60006130236017836135f0565b915061302e82613d28565b601782019050919050565b60006130466012836135df565b915061305182613d51565b602082019050919050565b6000613069600e836135df565b915061307482613d7a565b602082019050919050565b600061308c6011836135f0565b915061309782613da3565b601182019050919050565b60006130af602f836135df565b91506130ba82613dcc565b604082019050919050565b6130ce816137a9565b82525050565b60006130e08285612dad565b91506130ec8284612d7c565b91506130f782612f8a565b91508190509392505050565b600061310e82613016565b915061311a8285612d7c565b91506131258261307f565b91506131318284612d7c565b91508190509392505050565b60006020820190506131526000830184612ce9565b92915050565b600060608201905061316d6000830186612ce9565b61317a60208301856130c5565b818103604083015261318c8184612d43565b9050949350505050565b60006020820190506131ab6000830184612cf8565b92915050565b600060c0820190506131c66000830189612cf8565b6131d360208301886130c5565b6131e06040830187612d34565b6131ed60608301866130c5565b6131fa60808301856130c5565b81810360a083015261320c8184612d43565b9050979650505050505050565b600060208201905061322e6000830184612d07565b92915050565b60006060820190506132496000830186612d16565b6132566020830185612d25565b6132636040830184612ce9565b949350505050565b60006020820190506132806000830184612d34565b92915050565b600060208201905081810360008301526132a08184612d43565b905092915050565b600060208201905081810360008301526132c181612e2c565b9050919050565b600060208201905081810360008301526132e181612e4f565b9050919050565b6000602082019050818103600083015261330181612e72565b9050919050565b6000602082019050818103600083015261332181612e95565b9050919050565b6000602082019050818103600083015261334181612eb8565b9050919050565b6000602082019050818103600083015261336181612edb565b9050919050565b6000602082019050818103600083015261338181612efe565b9050919050565b600060208201905081810360008301526133a181612f21565b9050919050565b600060208201905081810360008301526133c181612f44565b9050919050565b600060208201905081810360008301526133e181612f67565b9050919050565b6000602082019050818103600083015261340181612fad565b9050919050565b6000602082019050818103600083015261342181612fd0565b9050919050565b6000602082019050818103600083015261344181612ff3565b9050919050565b6000602082019050818103600083015261346181613039565b9050919050565b600060208201905081810360008301526134818161305c565b9050919050565b600060208201905081810360008301526134a1816130a2565b9050919050565b60006020820190506134bd60008301846130c5565b92915050565b60006080820190506134d860008301876130c5565b6134e56020830186612ce9565b6134f260408301856130c5565b6134ff60608301846130c5565b95945050505050565b600060c08201905061351d60008301896130c5565b61352a60208301886130c5565b61353760408301876130c5565b61354460608301866130c5565b61355160808301856130c5565b61355e60a08301846130c5565b979650505050505050565b6000613573613584565b905061357f82826138ab565b919050565b6000604051905090565b600067ffffffffffffffff8211156135a9576135a8613a70565b5b6135b282613ab3565b9050602081019050919050565b60008190508160005260206000209050919050565b600081519050919050565b600082825260208201905092915050565b600081905092915050565b6000613606826137a9565b9150613611836137a9565b9250827fffffffffffffffffffffffffffffffffffffffffffffffffffffffffffffffff0382111561364657613645613956565b5b828201905092915050565b600061365c826137a9565b9150613667836137a9565b92508261367757613676613985565b5b828204905092915050565b600061368d826137a9565b9150613698836137a9565b9250817fffffffffffffffffffffffffffffffffffffffffffffffffffffffffffffffff04831182151516156136d1576136d0613956565b5b828202905092915050565b60006136e7826137a9565b91506136f2836137a9565b92508282101561370557613704613956565b5b828203905092915050565b600061371b82613789565b9050919050565b600061372d82613789565b9050919050565b60008115159050919050565b6000819050919050565b60007fffffffff0000000000000000000000000000000000000000000000000000000082169050919050565b600081905061378482613e1b565b919050565b600073ffffffffffffffffffffffffffffffffffffffff82169050919050565b6000819050919050565b60006137be826137e9565b9050919050565b60006137d0826137e9565b9050919050565b60006137e282613776565b9050919050565b60006137f4826137fb565b9050919050565b600061380682613789565b9050919050565b82818337600083830152505050565b60005b8381101561383a57808201518184015260208101905061381f565b83811115613849576000848401525b50505050565b600061385a826137a9565b9150600082141561386e5761386d613956565b5b600182039050919050565b6000600282049050600182168061389157607f821691505b602082108114156138a5576138a46139e3565b5b50919050565b6138b482613ab3565b810181811067ffffffffffffffff821117156138d3576138d2613a70565b5b80604052505050565b60006138e7826137a9565b91507fffffffffffffffffffffffffffffffffffffffffffffffffffffffffffffffff82141561391a57613919613956565b5b600182019050919050565b6000613930826137a9565b915061393b836137a9565b92508261394b5761394a613985565b5b828206905092915050565b7f4e487b7100000000000000000000000000000000000000000000000000000000600052601160045260246000fd5b7f4e487b7100000000000000000000000000000000000000000000000000000000600052601260045260246000fd5b7f4e487b7100000000000000000000000000000000000000000000000000000000600052602160045260246000fd5b7f4e487b7100000000000000000000000000000000000000000000000000000000600052602260045260246000fd5b7f4e487b7100000000000000000000000000000000000000000000000000000000600052603160045260246000fd5b7f4e487b7100000000000000000000000000000000000000000000000000000000600052603260045260246000fd5b7f4e487b7100000000000000000000000000000000000000000000000000000000600052604160045260246000fd5b600080fd5b600080fd5b600080fd5b600080fd5b6000601f19601f8301169050919050565b7f6e6f742073616c65732074696d65000000000000000000000000000000000000600082015250565b7f537472696e67733a20686578206c656e67746820696e73756666696369656e74600082015250565b7f4f776e61626c653a206e6577206f776e657220697320746865207a65726f206160008201527f6464726573730000000000000000000000000000000000000000000000000000602082015250565b7f706c656173652074727920616761696e20696e20612066657720352073656300600082015250565b7f696e76616c6964206b6c61792076616c75650000000000000000000000000000600082015250565b7f696e76616c696420616d6f756e74000000000000000000000000000000000000600082015250565b7f736f6c64206f7574000000000000000000000000000000000000000000000000600082015250565b7f6e6f7420656e6f756768204b6c61790000000000000000000000000000000000600082015250565b7f4e6f7420666f722073616c650000000000000000000000000000000000000000600082015250565b7f6e6f74206f70656e2073616c6500000000000000000000000000000000000000600082015250565b7f2e6a736f6e000000000000000000000000000000000000000000000000000000600082015250565b7f4f776e61626c653a2063616c6c6572206973206e6f7420746865206f776e6572600082015250565b7f616c726561647920626f75676874000000000000000000000000000000000000600082015250565b7f4e6f74206d617463682073616c65496400000000000000000000000000000000600082015250565b7f416363657373436f6e74726f6c3a206163636f756e7420000000000000000000600082015250565b7f4e6f74206d617463682073616c65547970650000000000000000000000000000600082015250565b7f6e6f74207768697465206c697374000000000000000000000000000000000000600082015250565b7f206973206d697373696e6720726f6c6520000000000000000000000000000000600082015250565b7f416363657373436f6e74726f6c3a2063616e206f6e6c792072656e6f756e636560008201527f20726f6c657320666f722073656c660000000000000000000000000000000000602082015250565b60028110613e2c57613e2b6139b4565b5b50565b613e3881613710565b8114613e4357600080fd5b50565b613e4f81613722565b8114613e5a57600080fd5b50565b613e6681613734565b8114613e7157600080fd5b50565b613e7d81613740565b8114613e8857600080fd5b50565b613e948161374a565b8114613e9f57600080fd5b50565b60028110613eaf57600080fd5b50565b613ebb816137a9565b8114613ec657600080fd5b5056fea264697066735822122098de4570ef83eb436bde68af56fd700cf794da149b55e761ccf6bd14a65e564f64736f6c63430008070033",
  "linkReferences": {},
  "deployedLinkReferences": {}
}